{
  "_format": "hh-sol-artifact-1",
  "contractName": "GameBase",
  "sourceName": "contracts/GameBase.sol",
  "abi": [
    {
      "inputs": [
        {
          "internalType": "address",
          "name": "token",
          "type": "address"
        }
      ],
      "name": "SafeERC20FailedOperation",
      "type": "error"
    },
    {
      "anonymous": false,
      "inputs": [],
      "name": "BettingFinished",
      "type": "event"
    },
    {
      "anonymous": false,
      "inputs": [
        {
          "indexed": false,
          "internalType": "uint256",
          "name": "timestamp",
          "type": "uint256"
        }
      ],
      "name": "GameFinalized",
      "type": "event"
    },
    {
      "anonymous": false,
      "inputs": [
        {
          "indexed": true,
          "internalType": "address",
          "name": "wallet",
          "type": "address"
        },
        {
          "indexed": false,
          "internalType": "string",
          "name": "name",
          "type": "string"
        },
        {
          "indexed": false,
          "internalType": "uint256",
          "name": "bet",
          "type": "uint256"
        }
      ],
      "name": "LogBet",
      "type": "event"
    },
    {
      "inputs": [],
      "name": "refundAfterBettingDeadline",
      "outputs": [],
      "stateMutability": "nonpayable",
      "type": "function"
    },
    {
      "inputs": [],
      "name": "refundAfterGameDeadline",
      "outputs": [],
      "stateMutability": "nonpayable",
      "type": "function"
    }
  ],
  "bytecode": "0x60806040526000600760006101000a81548160ff0219169083151502179055506000600760016101000a81548160ff0219169083151502179055506000600760026101000a81548160ff02191690831515021790555034801561006157600080fd5b50610e8a806100716000396000f3fe608060405234801561001057600080fd5b50600436106100365760003560e01c8063296d21c41461003b578063ecd7487714610045575b600080fd5b61004361004f565b005b61004d610381565b005b600160009054906101000a900473ffffffffffffffffffffffffffffffffffffffff1673ffffffffffffffffffffffffffffffffffffffff163373ffffffffffffffffffffffffffffffffffffffff16146100df576040517f08c379a00000000000000000000000000000000000000000000000000000000081526004016100d6906109d8565b60405180910390fd5b600760029054906101000a900460ff161561012f576040517f08c379a000000000000000000000000000000000000000000000000000000000815260040161012690610a44565b60405180910390fd5b600760019054906101000a900460ff161561017f576040517f08c379a000000000000000000000000000000000000000000000000000000000815260040161017690610ab0565b60405180910390fd5b60025460045461018f9190610b09565b42116101d0576040517f08c379a00000000000000000000000000000000000000000000000000000000081526004016101c790610b89565b60405180910390fd5b6001600760016101000a81548160ff02191690831515021790555060005b600880549050811015610376576008818154811061020f5761020e610ba9565b5b906000526020600020906005020160030160009054906101000a900460ff16801561026a57506008818154811061024957610248610ba9565b5b906000526020600020906005020160030160019054906101000a900460ff16155b15610363576103246008828154811061028657610285610ba9565b5b906000526020600020906005020160010160009054906101000a900473ffffffffffffffffffffffffffffffffffffffff16600883815481106102cc576102cb610ba9565b5b90600052602060002090600502016002015460008054906101000a900473ffffffffffffffffffffffffffffffffffffffff1673ffffffffffffffffffffffffffffffffffffffff1661071b9092919063ffffffff16565b60016008828154811061033a57610339610ba9565b5b906000526020600020906005020160030160016101000a81548160ff0219169083151502179055505b808061036e90610bd8565b9150506101ee565b5061037f61079a565b565b600160009054906101000a900473ffffffffffffffffffffffffffffffffffffffff1673ffffffffffffffffffffffffffffffffffffffff163373ffffffffffffffffffffffffffffffffffffffff1614610411576040517f08c379a0000000000000000000000000000000000000000000000000000000008152600401610408906109d8565b60405180910390fd5b600760029054906101000a900460ff1615610461576040517f08c379a000000000000000000000000000000000000000000000000000000000815260040161045890610a44565b60405180910390fd5b600760019054906101000a900460ff16156104b1576040517f08c379a00000000000000000000000000000000000000000000000000000000081526004016104a890610ab0565b60405180910390fd5b6003546005546104c19190610b09565b4211610502576040517f08c379a00000000000000000000000000000000000000000000000000000000081526004016104f990610c6c565b60405180910390fd5b6001600760016101000a81548160ff02191690831515021790555060008060009054906101000a900473ffffffffffffffffffffffffffffffffffffffff1673ffffffffffffffffffffffffffffffffffffffff166370a08231306040518263ffffffff1660e01b81526004016105799190610ccd565b602060405180830381865afa158015610596573d6000803e3d6000fd5b505050506040513d601f19601f820116820180604052508101906105ba9190610d19565b905060005b60088054905081101561070f576000600882815481106105e2576105e1610ba9565b5b906000526020600020906005020190508060030160009054906101000a900460ff16801561061f57508060030160019054906101000a900460ff16155b156106fb5760006064606283600201546106399190610d46565b6106439190610db7565b905060008183600201546106579190610de8565b905060008211156106db576106d18360010160009054906101000a900473ffffffffffffffffffffffffffffffffffffffff168360008054906101000a900473ffffffffffffffffffffffffffffffffffffffff1673ffffffffffffffffffffffffffffffffffffffff1661071b9092919063ffffffff16565b8183600401819055505b60018360030160016101000a81548160ff02191690831515021790555050505b50808061070790610bd8565b9150506105bf565b5061071861079a565b50565b610795838473ffffffffffffffffffffffffffffffffffffffff1663a9059cbb858560405160240161074e929190610e2b565b604051602081830303815290604052915060e01b6020820180517bffffffffffffffffffffffffffffffffffffffffffffffffffffffff83818316178352505050506108b3565b505050565b60008060009054906101000a900473ffffffffffffffffffffffffffffffffffffffff1673ffffffffffffffffffffffffffffffffffffffff166370a08231306040518263ffffffff1660e01b81526004016107f69190610ccd565b602060405180830381865afa158015610813573d6000803e3d6000fd5b505050506040513d601f19601f820116820180604052508101906108379190610d19565b905060008111156108b0576108af600160009054906101000a900473ffffffffffffffffffffffffffffffffffffffff168260008054906101000a900473ffffffffffffffffffffffffffffffffffffffff1673ffffffffffffffffffffffffffffffffffffffff1661071b9092919063ffffffff16565b5b50565b600080602060008451602086016000885af1806108d6576040513d6000823e3d81fd5b3d9250600051915050600082146108f157600181141561090d565b60008473ffffffffffffffffffffffffffffffffffffffff163b145b1561094f57836040517f5274afe70000000000000000000000000000000000000000000000000000000081526004016109469190610ccd565b60405180910390fd5b50505050565b600082825260208201905092915050565b7f4f6e6c7920746865206f776e65722063616e2063616c6c20746869732066756e60008201527f6374696f6e000000000000000000000000000000000000000000000000000000602082015250565b60006109c2602583610955565b91506109cd82610966565b604082019050919050565b600060208201905081810360008301526109f1816109b5565b9050919050565b7f47616d6520697320616c72656164792066696e69736865640000000000000000600082015250565b6000610a2e601883610955565b9150610a39826109f8565b602082019050919050565b60006020820190508181036000830152610a5d81610a21565b9050919050565b7f47616d652069732061626f727465640000000000000000000000000000000000600082015250565b6000610a9a600f83610955565b9150610aa582610a64565b602082019050919050565b60006020820190508181036000830152610ac981610a8d565b9050919050565b6000819050919050565b7f4e487b7100000000000000000000000000000000000000000000000000000000600052601160045260246000fd5b6000610b1482610ad0565b9150610b1f83610ad0565b9250828201905080821115610b3757610b36610ada565b5b92915050565b7f42657474696e672074696d65206e6f7420796574206f76657200000000000000600082015250565b6000610b73601983610955565b9150610b7e82610b3d565b602082019050919050565b60006020820190508181036000830152610ba281610b66565b9050919050565b7f4e487b7100000000000000000000000000000000000000000000000000000000600052603260045260246000fd5b6000610be382610ad0565b91507fffffffffffffffffffffffffffffffffffffffffffffffffffffffffffffffff8203610c1557610c14610ada565b5b600182019050919050565b7f47616d652074696d65206e6f7420796574206f76657200000000000000000000600082015250565b6000610c56601683610955565b9150610c6182610c20565b602082019050919050565b60006020820190508181036000830152610c8581610c49565b9050919050565b600073ffffffffffffffffffffffffffffffffffffffff82169050919050565b6000610cb782610c8c565b9050919050565b610cc781610cac565b82525050565b6000602082019050610ce26000830184610cbe565b92915050565b600080fd5b610cf681610ad0565b8114610d0157600080fd5b50565b600081519050610d1381610ced565b92915050565b600060208284031215610d2f57610d2e610ce8565b5b6000610d3d84828501610d04565b91505092915050565b6000610d5182610ad0565b9150610d5c83610ad0565b9250828202610d6a81610ad0565b91508282048414831517610d8157610d80610ada565b5b5092915050565b7f4e487b7100000000000000000000000000000000000000000000000000000000600052601260045260246000fd5b6000610dc282610ad0565b9150610dcd83610ad0565b925082610ddd57610ddc610d88565b5b828204905092915050565b6000610df382610ad0565b9150610dfe83610ad0565b9250828203905081811115610e1657610e15610ada565b5b92915050565b610e2581610ad0565b82525050565b6000604082019050610e406000830185610cbe565b610e4d6020830184610e1c565b939250505056fea26469706673582212205b47828cc65366594d010698d3f7c05039d4d1f439b82ea8ec5d3eaee884ee1364736f6c63430008140033",
  "linkReferences": {},
  "deployedLinkReferences": {}
}