{
  "_format": "hh-sol-artifact-1",
  "contractName": "GameBase",
  "sourceName": "contracts/GameBase.sol",
  "abi": [
    {
      "inputs": [
        {
          "internalType": "address",
          "name": "token",
          "type": "address"
        }
      ],
      "name": "SafeERC20FailedOperation",
      "type": "error"
    },
    {
      "anonymous": false,
      "inputs": [],
      "name": "BettingFinished",
      "type": "event"
    },
    {
      "anonymous": false,
      "inputs": [
        {
          "indexed": false,
          "internalType": "uint256",
          "name": "timestamp",
          "type": "uint256"
        }
      ],
      "name": "GameFinalized",
      "type": "event"
    },
    {
      "anonymous": false,
      "inputs": [
        {
          "indexed": true,
          "internalType": "address",
          "name": "wallet",
          "type": "address"
        },
        {
          "indexed": false,
          "internalType": "string",
          "name": "name",
          "type": "string"
        },
        {
          "indexed": false,
          "internalType": "uint256",
          "name": "bet",
          "type": "uint256"
        }
      ],
      "name": "LogBet",
      "type": "event"
    },
    {
      "inputs": [],
      "name": "checkAndHandleBetting",
      "outputs": [],
      "stateMutability": "nonpayable",
      "type": "function"
    },
    {
      "inputs": [],
      "name": "refundAfterBettingDeadline",
      "outputs": [],
      "stateMutability": "nonpayable",
      "type": "function"
    },
    {
      "inputs": [],
      "name": "refundAfterGameDeadline",
      "outputs": [],
      "stateMutability": "nonpayable",
      "type": "function"
    }
  ],
  "bytecode": "0x60806040526000600760006101000a81548160ff0219169083151502179055506000600760016101000a81548160ff0219169083151502179055506000600760026101000a81548160ff02191690831515021790555034801561006157600080fd5b5061124e806100716000396000f3fe608060405234801561001057600080fd5b50600436106100415760003560e01c8063296d21c414610046578063661325c414610050578063ecd748771461005a575b600080fd5b61004e610064565b005b610058610396565b005b61006261072a565b005b600160009054906101000a900473ffffffffffffffffffffffffffffffffffffffff1673ffffffffffffffffffffffffffffffffffffffff163373ffffffffffffffffffffffffffffffffffffffff16146100f4576040517f08c379a00000000000000000000000000000000000000000000000000000000081526004016100eb90610d81565b60405180910390fd5b600760029054906101000a900460ff1615610144576040517f08c379a000000000000000000000000000000000000000000000000000000000815260040161013b90610ded565b60405180910390fd5b600760019054906101000a900460ff1615610194576040517f08c379a000000000000000000000000000000000000000000000000000000000815260040161018b90610e59565b60405180910390fd5b6002546004546101a49190610eb2565b42116101e5576040517f08c379a00000000000000000000000000000000000000000000000000000000081526004016101dc90610f32565b60405180910390fd5b6001600760016101000a81548160ff02191690831515021790555060005b60088054905081101561038b576008818154811061022457610223610f52565b5b906000526020600020906005020160030160009054906101000a900460ff16801561027f57506008818154811061025e5761025d610f52565b5b906000526020600020906005020160030160019054906101000a900460ff16155b15610378576103396008828154811061029b5761029a610f52565b5b906000526020600020906005020160010160009054906101000a900473ffffffffffffffffffffffffffffffffffffffff16600883815481106102e1576102e0610f52565b5b90600052602060002090600502016002015460008054906101000a900473ffffffffffffffffffffffffffffffffffffffff1673ffffffffffffffffffffffffffffffffffffffff16610ac49092919063ffffffff16565b60016008828154811061034f5761034e610f52565b5b906000526020600020906005020160030160016101000a81548160ff0219169083151502179055505b808061038390610f81565b915050610203565b50610394610b43565b565b600160009054906101000a900473ffffffffffffffffffffffffffffffffffffffff1673ffffffffffffffffffffffffffffffffffffffff163373ffffffffffffffffffffffffffffffffffffffff1614610426576040517f08c379a000000000000000000000000000000000000000000000000000000000815260040161041d90610d81565b60405180910390fd5b600760029054906101000a900460ff1615610476576040517f08c379a000000000000000000000000000000000000000000000000000000000815260040161046d90610ded565b60405180910390fd5b600760019054906101000a900460ff16156104c6576040517f08c379a00000000000000000000000000000000000000000000000000000000081526004016104bd90610e59565b60405180910390fd5b600042905060006001905060005b60088054905081101561053457600881815481106104f5576104f4610f52565b5b906000526020600020906005020160030160009054906101000a900460ff166105215760009150610534565b808061052c90610f81565b9150506104d4565b5080801561054457506000600554145b1561059e576001600760006101000a81548160ff021916908315150217905550816005819055507f780fcd6f670bec2e3c1a567dfc85156e0a2a05927c566f714abbddb8ba7f1e5660405160405180910390a15050610728565b6002546004546105ae9190610eb2565b821115610725576001600760016101000a81548160ff02191690831515021790555060005b6008805490508110156106dd576000600882815481106105f6576105f5610f52565b5b906000526020600020906005020190508060030160009054906101000a900460ff16801561063357508060030160019054906101000a900460ff16155b156106c9576106ab8160010160009054906101000a900473ffffffffffffffffffffffffffffffffffffffff16826002015460008054906101000a900473ffffffffffffffffffffffffffffffffffffffff1673ffffffffffffffffffffffffffffffffffffffff16610ac49092919063ffffffff16565b60018160030160016101000a81548160ff0219169083151502179055505b5080806106d590610f81565b9150506105d3565b506106e6610b43565b816006819055507f821e8f282903f17bca18208015c4de756a7bbcd272fce239c6701cf1f9aed6208260405161071c9190610fd8565b60405180910390a15b50505b565b600160009054906101000a900473ffffffffffffffffffffffffffffffffffffffff1673ffffffffffffffffffffffffffffffffffffffff163373ffffffffffffffffffffffffffffffffffffffff16146107ba576040517f08c379a00000000000000000000000000000000000000000000000000000000081526004016107b190610d81565b60405180910390fd5b600760029054906101000a900460ff161561080a576040517f08c379a000000000000000000000000000000000000000000000000000000000815260040161080190610ded565b60405180910390fd5b600760019054906101000a900460ff161561085a576040517f08c379a000000000000000000000000000000000000000000000000000000000815260040161085190610e59565b60405180910390fd5b60035460055461086a9190610eb2565b42116108ab576040517f08c379a00000000000000000000000000000000000000000000000000000000081526004016108a29061103f565b60405180910390fd5b6001600760016101000a81548160ff02191690831515021790555060008060009054906101000a900473ffffffffffffffffffffffffffffffffffffffff1673ffffffffffffffffffffffffffffffffffffffff166370a08231306040518263ffffffff1660e01b815260040161092291906110a0565b602060405180830381865afa15801561093f573d6000803e3d6000fd5b505050506040513d601f19601f8201168201806040525081019061096391906110ec565b905060005b600880549050811015610ab85760006008828154811061098b5761098a610f52565b5b906000526020600020906005020190508060030160009054906101000a900460ff1680156109c857508060030160019054906101000a900460ff16155b15610aa45760006064606283600201546109e29190611119565b6109ec919061118a565b90506000818360020154610a0091906111bb565b90506000821115610a8457610a7a8360010160009054906101000a900473ffffffffffffffffffffffffffffffffffffffff168360008054906101000a900473ffffffffffffffffffffffffffffffffffffffff1673ffffffffffffffffffffffffffffffffffffffff16610ac49092919063ffffffff16565b8183600401819055505b60018360030160016101000a81548160ff02191690831515021790555050505b508080610ab090610f81565b915050610968565b50610ac1610b43565b50565b610b3e838473ffffffffffffffffffffffffffffffffffffffff1663a9059cbb8585604051602401610af79291906111ef565b604051602081830303815290604052915060e01b6020820180517bffffffffffffffffffffffffffffffffffffffffffffffffffffffff8381831617835250505050610c5c565b505050565b60008060009054906101000a900473ffffffffffffffffffffffffffffffffffffffff1673ffffffffffffffffffffffffffffffffffffffff166370a08231306040518263ffffffff1660e01b8152600401610b9f91906110a0565b602060405180830381865afa158015610bbc573d6000803e3d6000fd5b505050506040513d601f19601f82011682018060405250810190610be091906110ec565b90506000811115610c5957610c58600160009054906101000a900473ffffffffffffffffffffffffffffffffffffffff168260008054906101000a900473ffffffffffffffffffffffffffffffffffffffff1673ffffffffffffffffffffffffffffffffffffffff16610ac49092919063ffffffff16565b5b50565b600080602060008451602086016000885af180610c7f576040513d6000823e3d81fd5b3d925060005191505060008214610c9a576001811415610cb6565b60008473ffffffffffffffffffffffffffffffffffffffff163b145b15610cf857836040517f5274afe7000000000000000000000000000000000000000000000000000000008152600401610cef91906110a0565b60405180910390fd5b50505050565b600082825260208201905092915050565b7f4f6e6c7920746865206f776e65722063616e2063616c6c20746869732066756e60008201527f6374696f6e000000000000000000000000000000000000000000000000000000602082015250565b6000610d6b602583610cfe565b9150610d7682610d0f565b604082019050919050565b60006020820190508181036000830152610d9a81610d5e565b9050919050565b7f47616d6520697320616c72656164792066696e69736865640000000000000000600082015250565b6000610dd7601883610cfe565b9150610de282610da1565b602082019050919050565b60006020820190508181036000830152610e0681610dca565b9050919050565b7f47616d652069732061626f727465640000000000000000000000000000000000600082015250565b6000610e43600f83610cfe565b9150610e4e82610e0d565b602082019050919050565b60006020820190508181036000830152610e7281610e36565b9050919050565b6000819050919050565b7f4e487b7100000000000000000000000000000000000000000000000000000000600052601160045260246000fd5b6000610ebd82610e79565b9150610ec883610e79565b9250828201905080821115610ee057610edf610e83565b5b92915050565b7f42657474696e672074696d65206e6f7420796574206f76657200000000000000600082015250565b6000610f1c601983610cfe565b9150610f2782610ee6565b602082019050919050565b60006020820190508181036000830152610f4b81610f0f565b9050919050565b7f4e487b7100000000000000000000000000000000000000000000000000000000600052603260045260246000fd5b6000610f8c82610e79565b91507fffffffffffffffffffffffffffffffffffffffffffffffffffffffffffffffff8203610fbe57610fbd610e83565b5b600182019050919050565b610fd281610e79565b82525050565b6000602082019050610fed6000830184610fc9565b92915050565b7f47616d652074696d65206e6f7420796574206f76657200000000000000000000600082015250565b6000611029601683610cfe565b915061103482610ff3565b602082019050919050565b600060208201905081810360008301526110588161101c565b9050919050565b600073ffffffffffffffffffffffffffffffffffffffff82169050919050565b600061108a8261105f565b9050919050565b61109a8161107f565b82525050565b60006020820190506110b56000830184611091565b92915050565b600080fd5b6110c981610e79565b81146110d457600080fd5b50565b6000815190506110e6816110c0565b92915050565b600060208284031215611102576111016110bb565b5b6000611110848285016110d7565b91505092915050565b600061112482610e79565b915061112f83610e79565b925082820261113d81610e79565b9150828204841483151761115457611153610e83565b5b5092915050565b7f4e487b7100000000000000000000000000000000000000000000000000000000600052601260045260246000fd5b600061119582610e79565b91506111a083610e79565b9250826111b0576111af61115b565b5b828204905092915050565b60006111c682610e79565b91506111d183610e79565b92508282039050818111156111e9576111e8610e83565b5b92915050565b60006040820190506112046000830185611091565b6112116020830184610fc9565b939250505056fea26469706673582212200c53c96a83b48c72117575d41386f9d6391b3f84af6cffb3cb745867cd87c77264736f6c63430008140033",
  "linkReferences": {},
  "deployedLinkReferences": {}
}