{
  "_format": "hh-sol-artifact-1",
  "contractName": "DelegateCallGameStorage",
  "sourceName": "contracts/Game.sol",
  "abi": [
    {
      "inputs": [
        {
          "components": [
            {
              "internalType": "string",
              "name": "name",
              "type": "string"
            },
            {
              "internalType": "address",
              "name": "wallet",
              "type": "address"
            },
            {
              "internalType": "uint256",
              "name": "bet",
              "type": "uint256"
            },
            {
              "internalType": "bool",
              "name": "isPaid",
              "type": "bool"
            },
            {
              "internalType": "bool",
              "name": "isPaidOut",
              "type": "bool"
            },
            {
              "internalType": "uint256",
              "name": "result",
              "type": "uint256"
            }
          ],
          "internalType": "struct GameBase.Player[]",
          "name": "_playerList",
          "type": "tuple[]"
        },
        {
          "internalType": "address",
          "name": "logicAddr",
          "type": "address"
        },
        {
          "internalType": "uint256",
          "name": "_bettingMaxTime",
          "type": "uint256"
        },
        {
          "internalType": "uint256",
          "name": "_gameMaxTime",
          "type": "uint256"
        },
        {
          "internalType": "address",
          "name": "_tokenAddress",
          "type": "address"
        }
      ],
      "stateMutability": "nonpayable",
      "type": "constructor"
    },
    {
      "inputs": [
        {
          "internalType": "address",
          "name": "token",
          "type": "address"
        }
      ],
      "name": "SafeERC20FailedOperation",
      "type": "error"
    },
    {
      "anonymous": false,
      "inputs": [],
      "name": "BettingFinished",
      "type": "event"
    },
    {
      "anonymous": false,
      "inputs": [
        {
          "indexed": false,
          "internalType": "uint256",
          "name": "timestamp",
          "type": "uint256"
        }
      ],
      "name": "GameFinalized",
      "type": "event"
    },
    {
      "anonymous": false,
      "inputs": [
        {
          "indexed": true,
          "internalType": "address",
          "name": "wallet",
          "type": "address"
        },
        {
          "indexed": false,
          "internalType": "string",
          "name": "name",
          "type": "string"
        },
        {
          "indexed": false,
          "internalType": "uint256",
          "name": "bet",
          "type": "uint256"
        }
      ],
      "name": "LogBet",
      "type": "event"
    },
    {
      "inputs": [],
      "name": "abortGame",
      "outputs": [],
      "stateMutability": "nonpayable",
      "type": "function"
    },
    {
      "inputs": [],
      "name": "checkAndHandleBetting",
      "outputs": [],
      "stateMutability": "nonpayable",
      "type": "function"
    },
    {
      "inputs": [],
      "name": "deposit",
      "outputs": [],
      "stateMutability": "nonpayable",
      "type": "function"
    },
    {
      "inputs": [
        {
          "components": [
            {
              "internalType": "address",
              "name": "wallet",
              "type": "address"
            },
            {
              "internalType": "uint8",
              "name": "percent",
              "type": "uint8"
            }
          ],
          "internalType": "struct GameBase.PlayerResult[]",
          "name": "_playerResultList",
          "type": "tuple[]"
        }
      ],
      "name": "finish",
      "outputs": [],
      "stateMutability": "nonpayable",
      "type": "function"
    },
    {
      "inputs": [],
      "name": "getAllPlayers",
      "outputs": [
        {
          "internalType": "string[]",
          "name": "names",
          "type": "string[]"
        },
        {
          "internalType": "address[]",
          "name": "wallets",
          "type": "address[]"
        },
        {
          "internalType": "uint256[]",
          "name": "bets",
          "type": "uint256[]"
        },
        {
          "internalType": "bool[]",
          "name": "isPaid",
          "type": "bool[]"
        },
        {
          "internalType": "bool[]",
          "name": "isPaidOut",
          "type": "bool[]"
        },
        {
          "internalType": "uint256[]",
          "name": "results",
          "type": "uint256[]"
        }
      ],
      "stateMutability": "view",
      "type": "function"
    },
    {
      "inputs": [],
      "name": "getContractBalance",
      "outputs": [
        {
          "internalType": "uint256",
          "name": "",
          "type": "uint256"
        }
      ],
      "stateMutability": "view",
      "type": "function"
    },
    {
      "inputs": [],
      "name": "getGameData",
      "outputs": [
        {
          "internalType": "uint256",
          "name": "bettingMaxTime",
          "type": "uint256"
        },
        {
          "internalType": "uint256",
          "name": "gameMaxTime",
          "type": "uint256"
        },
        {
          "internalType": "uint256",
          "name": "createdAt",
          "type": "uint256"
        },
        {
          "internalType": "uint256",
          "name": "startedAt",
          "type": "uint256"
        },
        {
          "internalType": "uint256",
          "name": "finishedAt",
          "type": "uint256"
        },
        {
          "internalType": "bool",
          "name": "isBettingComplete",
          "type": "bool"
        },
        {
          "internalType": "bool",
          "name": "isGameAborted",
          "type": "bool"
        },
        {
          "internalType": "bool",
          "name": "isGameFinished",
          "type": "bool"
        }
      ],
      "stateMutability": "view",
      "type": "function"
    },
    {
      "inputs": [
        {
          "internalType": "uint256",
          "name": "index",
          "type": "uint256"
        }
      ],
      "name": "getPlayer",
      "outputs": [
        {
          "components": [
            {
              "internalType": "string",
              "name": "name",
              "type": "string"
            },
            {
              "internalType": "address",
              "name": "wallet",
              "type": "address"
            },
            {
              "internalType": "uint256",
              "name": "bet",
              "type": "uint256"
            },
            {
              "internalType": "bool",
              "name": "isPaid",
              "type": "bool"
            },
            {
              "internalType": "bool",
              "name": "isPaidOut",
              "type": "bool"
            },
            {
              "internalType": "uint256",
              "name": "result",
              "type": "uint256"
            }
          ],
          "internalType": "struct GameBase.Player",
          "name": "",
          "type": "tuple"
        }
      ],
      "stateMutability": "view",
      "type": "function"
    },
    {
      "inputs": [],
      "name": "isFinished",
      "outputs": [
        {
          "internalType": "bool",
          "name": "",
          "type": "bool"
        }
      ],
      "stateMutability": "view",
      "type": "function"
    },
    {
      "inputs": [],
      "name": "refundAfterBettingDeadline",
      "outputs": [],
      "stateMutability": "nonpayable",
      "type": "function"
    },
    {
      "inputs": [],
      "name": "refundAfterGameDeadline",
      "outputs": [],
      "stateMutability": "nonpayable",
      "type": "function"
    },
    {
      "inputs": [],
      "name": "withdrawRemainingBalance",
      "outputs": [],
      "stateMutability": "nonpayable",
      "type": "function"
    }
  ],
  "bytecode": "0x60806040526000600760006101000a81548160ff0219169083151502179055506000600760016101000a81548160ff0219169083151502179055506000600760026101000a81548160ff0219169083151502179055503480156200006257600080fd5b506040516200520a3803806200520a833981810160405281019062000088919062000ada565b6200009c858585856200017460201b60201c565b600073ffffffffffffffffffffffffffffffffffffffff168173ffffffffffffffffffffffffffffffffffffffff16036200010e576040517f08c379a0000000000000000000000000000000000000000000000000000000008152600401620001059062000be2565b60405180910390fd5b806000806101000a81548173ffffffffffffffffffffffffffffffffffffffff021916908373ffffffffffffffffffffffffffffffffffffffff1602179055506000600b60146101000a81548160ff021916908315150217905550505050505062001237565b6000845111620001bb576040517f08c379a0000000000000000000000000000000000000000000000000000000008152600401620001b29062000c54565b60405180910390fd5b600073ffffffffffffffffffffffffffffffffffffffff168373ffffffffffffffffffffffffffffffffffffffff16036200022d576040517f08c379a0000000000000000000000000000000000000000000000000000000008152600401620002249062000cc6565b60405180910390fd5b6000821162000273576040517f08c379a00000000000000000000000000000000000000000000000000000000081526004016200026a9062000d5e565b60405180910390fd5b60008111620002b9576040517f08c379a0000000000000000000000000000000000000000000000000000000008152600401620002b09062000dd0565b60405180910390fd5b33600160006101000a81548173ffffffffffffffffffffffffffffffffffffffff021916908373ffffffffffffffffffffffffffffffffffffffff1602179055504260048190555082600b60006101000a81548173ffffffffffffffffffffffffffffffffffffffff021916908373ffffffffffffffffffffffffffffffffffffffff160217905550816002819055508060038190555060005b84518110156200068d57600a600086838151811062000377576200037662000df2565b5b60200260200101516020015173ffffffffffffffffffffffffffffffffffffffff1673ffffffffffffffffffffffffffffffffffffffff16815260200190815260200160002060009054906101000a900460ff16156200040e576040517f08c379a0000000000000000000000000000000000000000000000000000000008152600401620004059062000e71565b60405180910390fd5b60086040518060c0016040528087848151811062000431576200043062000df2565b5b602002602001015160000151815260200187848151811062000458576200045762000df2565b5b60200260200101516020015173ffffffffffffffffffffffffffffffffffffffff16815260200187848151811062000495576200049462000df2565b5b6020026020010151604001518152602001600015158152602001600015158152602001600081525090806001815401808255809150506001900390600052602060002090600502016000909190919091506000820151816000019081620004fd9190620010d4565b5060208201518160010160006101000a81548173ffffffffffffffffffffffffffffffffffffffff021916908373ffffffffffffffffffffffffffffffffffffffff1602179055506040820151816002015560608201518160030160006101000a81548160ff02191690831515021790555060808201518160030160016101000a81548160ff02191690831515021790555060a0820151816004015550508060096000878481518110620005b657620005b562000df2565b5b60200260200101516020015173ffffffffffffffffffffffffffffffffffffffff1673ffffffffffffffffffffffffffffffffffffffff168152602001908152602001600020819055506001600a60008784815181106200061c576200061b62000df2565b5b60200260200101516020015173ffffffffffffffffffffffffffffffffffffffff1673ffffffffffffffffffffffffffffffffffffffff16815260200190815260200160002060006101000a81548160ff021916908315150217905550806200068590620011ea565b905062000353565b5050505050565b6000604051905090565b600080fd5b600080fd5b600080fd5b6000601f19601f8301169050919050565b7f4e487b7100000000000000000000000000000000000000000000000000000000600052604160045260246000fd5b620006f882620006ad565b810181811067ffffffffffffffff821117156200071a5762000719620006be565b5b80604052505050565b60006200072f62000694565b90506200073d8282620006ed565b919050565b600067ffffffffffffffff82111562000760576200075f620006be565b5b602082029050602081019050919050565b600080fd5b600080fd5b600080fd5b600080fd5b600067ffffffffffffffff821115620007a357620007a2620006be565b5b620007ae82620006ad565b9050602081019050919050565b60005b83811015620007db578082015181840152602081019050620007be565b60008484015250505050565b6000620007fe620007f88462000785565b62000723565b9050828152602081018484840111156200081d576200081c62000780565b5b6200082a848285620007bb565b509392505050565b600082601f8301126200084a5762000849620006a8565b5b81516200085c848260208601620007e7565b91505092915050565b600073ffffffffffffffffffffffffffffffffffffffff82169050919050565b6000620008928262000865565b9050919050565b620008a48162000885565b8114620008b057600080fd5b50565b600081519050620008c48162000899565b92915050565b6000819050919050565b620008df81620008ca565b8114620008eb57600080fd5b50565b600081519050620008ff81620008d4565b92915050565b60008115159050919050565b6200091c8162000905565b81146200092857600080fd5b50565b6000815190506200093c8162000911565b92915050565b600060c082840312156200095b576200095a62000776565b5b6200096760c062000723565b9050600082015167ffffffffffffffff8111156200098a57620009896200077b565b5b620009988482850162000832565b6000830152506020620009ae84828501620008b3565b6020830152506040620009c484828501620008ee565b6040830152506060620009da848285016200092b565b6060830152506080620009f0848285016200092b565b60808301525060a062000a0684828501620008ee565b60a08301525092915050565b600062000a2962000a238462000742565b62000723565b9050808382526020820190506020840283018581111562000a4f5762000a4e62000771565b5b835b8181101562000a9d57805167ffffffffffffffff81111562000a785762000a77620006a8565b5b80860162000a87898262000942565b8552602085019450505060208101905062000a51565b5050509392505050565b600082601f83011262000abf5762000abe620006a8565b5b815162000ad184826020860162000a12565b91505092915050565b600080600080600060a0868803121562000af95762000af86200069e565b5b600086015167ffffffffffffffff81111562000b1a5762000b19620006a3565b5b62000b288882890162000aa7565b955050602062000b3b88828901620008b3565b945050604062000b4e88828901620008ee565b935050606062000b6188828901620008ee565b925050608062000b7488828901620008b3565b9150509295509295909350565b600082825260208201905092915050565b7f546f6b656e2061646472657373207a65726f0000000000000000000000000000600082015250565b600062000bca60128362000b81565b915062000bd78262000b92565b602082019050919050565b6000602082019050818103600083015262000bfd8162000bbb565b9050919050565b7f506c61796572206c6973742063616e6e6f7420626520656d7074790000000000600082015250565b600062000c3c601b8362000b81565b915062000c498262000c04565b602082019050919050565b6000602082019050818103600083015262000c6f8162000c2d565b9050919050565b7f496e76616c6964206c6f67696320636f6e747261637420616464726573730000600082015250565b600062000cae601e8362000b81565b915062000cbb8262000c76565b602082019050919050565b6000602082019050818103600083015262000ce18162000c9f565b9050919050565b7f42657474696e672074696d65206d75737420626520677265617465722074686160008201527f6e20300000000000000000000000000000000000000000000000000000000000602082015250565b600062000d4660238362000b81565b915062000d538262000ce8565b604082019050919050565b6000602082019050818103600083015262000d798162000d37565b9050919050565b7f47616d652074696d65206d7573742062652067726561746572207468616e2030600082015250565b600062000db860208362000b81565b915062000dc58262000d80565b602082019050919050565b6000602082019050818103600083015262000deb8162000da9565b9050919050565b7f4e487b7100000000000000000000000000000000000000000000000000000000600052603260045260246000fd5b7f506c6179657220616c7265616479206578697374730000000000000000000000600082015250565b600062000e5960158362000b81565b915062000e668262000e21565b602082019050919050565b6000602082019050818103600083015262000e8c8162000e4a565b9050919050565b600081519050919050565b7f4e487b7100000000000000000000000000000000000000000000000000000000600052602260045260246000fd5b6000600282049050600182168062000ee657607f821691505b60208210810362000efc5762000efb62000e9e565b5b50919050565b60008190508160005260206000209050919050565b60006020601f8301049050919050565b600082821b905092915050565b60006008830262000f667fffffffffffffffffffffffffffffffffffffffffffffffffffffffffffffffff8262000f27565b62000f72868362000f27565b95508019841693508086168417925050509392505050565b6000819050919050565b600062000fb562000faf62000fa984620008ca565b62000f8a565b620008ca565b9050919050565b6000819050919050565b62000fd18362000f94565b62000fe962000fe08262000fbc565b84845462000f34565b825550505050565b600090565b6200100062000ff1565b6200100d81848462000fc6565b505050565b5b8181101562001035576200102960008262000ff6565b60018101905062001013565b5050565b601f82111562001084576200104e8162000f02565b620010598462000f17565b8101602085101562001069578190505b62001081620010788562000f17565b83018262001012565b50505b505050565b600082821c905092915050565b6000620010a96000198460080262001089565b1980831691505092915050565b6000620010c4838362001096565b9150826002028217905092915050565b620010df8262000e93565b67ffffffffffffffff811115620010fb57620010fa620006be565b5b62001107825462000ecd565b6200111482828562001039565b600060209050601f8311600181146200114c576000841562001137578287015190505b620011438582620010b6565b865550620011b3565b601f1984166200115c8662000f02565b60005b8281101562001186578489015182556001820191506020850194506020810190506200115f565b86831015620011a65784890151620011a2601f89168262001096565b8355505b6001600288020188555050505b505050505050565b7f4e487b7100000000000000000000000000000000000000000000000000000000600052601160045260246000fd5b6000620011f782620008ca565b91507fffffffffffffffffffffffffffffffffffffffffffffffffffffffffffffffff82036200122c576200122b620011bb565b5b600182019050919050565b613fc380620012476000396000f3fe608060405234801561001057600080fd5b50600436106100b45760003560e01c8063af4e99de11610071578063af4e99de1461012f578063b91d53c614610154578063d0e30db01461015e578063e55ae4e814610168578063ecd7487714610198578063efa1c482146101a2576100b4565b806307784022146100b9578063296d21c4146100d5578063661325c4146100df5780636f9fb98a146100e95780637b3529621461010757806390506f2014610125575b600080fd5b6100d360048036038101906100ce9190612da6565b6101c5565b005b6100dd61023c565b005b6100e761056e565b005b6100f1610902565b6040516100fe9190612e08565b60405180910390f35b61010f610911565b60405161011c9190612e3e565b60405180910390f35b61012d610924565b005b61013761092e565b60405161014b989796959493929190612e59565b60405180910390f35b61015c61095c565b005b610166610966565b005b610182600480360381019061017d9190612f03565b610970565b60405161018f9190613065565b60405180910390f35b6101a0610988565b005b6101aa610d22565b6040516101bc96959493929190613356565b60405180910390f35b600b60149054906101000a900460ff1615610215576040517f08c379a000000000000000000000000000000000000000000000000000000000815260040161020c9061343e565b60405180910390fd5b61021e81610d47565b6001600b60146101000a81548160ff02191690831515021790555050565b600160009054906101000a900473ffffffffffffffffffffffffffffffffffffffff1673ffffffffffffffffffffffffffffffffffffffff163373ffffffffffffffffffffffffffffffffffffffff16146102cc576040517f08c379a00000000000000000000000000000000000000000000000000000000081526004016102c3906134d0565b60405180910390fd5b600760029054906101000a900460ff161561031c576040517f08c379a00000000000000000000000000000000000000000000000000000000081526004016103139061353c565b60405180910390fd5b600760019054906101000a900460ff161561036c576040517f08c379a0000000000000000000000000000000000000000000000000000000008152600401610363906135a8565b60405180910390fd5b60025460045461037c91906135f7565b42116103bd576040517f08c379a00000000000000000000000000000000000000000000000000000000081526004016103b490613677565b60405180910390fd5b6001600760016101000a81548160ff02191690831515021790555060005b60088054905081101561056357600881815481106103fc576103fb613697565b5b906000526020600020906005020160030160009054906101000a900460ff16801561045757506008818154811061043657610435613697565b5b906000526020600020906005020160030160019054906101000a900460ff16155b15610550576105116008828154811061047357610472613697565b5b906000526020600020906005020160010160009054906101000a900473ffffffffffffffffffffffffffffffffffffffff16600883815481106104b9576104b8613697565b5b90600052602060002090600502016002015460008054906101000a900473ffffffffffffffffffffffffffffffffffffffff1673ffffffffffffffffffffffffffffffffffffffff166117f69092919063ffffffff16565b60016008828154811061052757610526613697565b5b906000526020600020906005020160030160016101000a81548160ff0219169083151502179055505b808061055b906136c6565b9150506103db565b5061056c611875565b565b600160009054906101000a900473ffffffffffffffffffffffffffffffffffffffff1673ffffffffffffffffffffffffffffffffffffffff163373ffffffffffffffffffffffffffffffffffffffff16146105fe576040517f08c379a00000000000000000000000000000000000000000000000000000000081526004016105f5906134d0565b60405180910390fd5b600760029054906101000a900460ff161561064e576040517f08c379a00000000000000000000000000000000000000000000000000000000081526004016106459061353c565b60405180910390fd5b600760019054906101000a900460ff161561069e576040517f08c379a0000000000000000000000000000000000000000000000000000000008152600401610695906135a8565b60405180910390fd5b600042905060006001905060005b60088054905081101561070c57600881815481106106cd576106cc613697565b5b906000526020600020906005020160030160009054906101000a900460ff166106f9576000915061070c565b8080610704906136c6565b9150506106ac565b5080801561071c57506000600554145b15610776576001600760006101000a81548160ff021916908315150217905550816005819055507f780fcd6f670bec2e3c1a567dfc85156e0a2a05927c566f714abbddb8ba7f1e5660405160405180910390a15050610900565b60025460045461078691906135f7565b8211156108fd576001600760016101000a81548160ff02191690831515021790555060005b6008805490508110156108b5576000600882815481106107ce576107cd613697565b5b906000526020600020906005020190508060030160009054906101000a900460ff16801561080b57508060030160019054906101000a900460ff16155b156108a1576108838160010160009054906101000a900473ffffffffffffffffffffffffffffffffffffffff16826002015460008054906101000a900473ffffffffffffffffffffffffffffffffffffffff1673ffffffffffffffffffffffffffffffffffffffff166117f69092919063ffffffff16565b60018160030160016101000a81548160ff0219169083151502179055505b5080806108ad906136c6565b9150506107ab565b506108be611875565b816006819055507f821e8f282903f17bca18208015c4de756a7bbcd272fce239c6701cf1f9aed620826040516108f49190612e08565b60405180910390a15b50505b565b600061090c61198e565b905090565b600b60149054906101000a900460ff1681565b61092c611a30565b565b600080600080600080600080610942611d11565b975097509750975097509750975097509091929394959697565b610964611875565b565b61096e611d76565b565b610978612afd565b610981826120db565b9050919050565b600160009054906101000a900473ffffffffffffffffffffffffffffffffffffffff1673ffffffffffffffffffffffffffffffffffffffff163373ffffffffffffffffffffffffffffffffffffffff1614610a18576040517f08c379a0000000000000000000000000000000000000000000000000000000008152600401610a0f906134d0565b60405180910390fd5b600760029054906101000a900460ff1615610a68576040517f08c379a0000000000000000000000000000000000000000000000000000000008152600401610a5f9061353c565b60405180910390fd5b600760019054906101000a900460ff1615610ab8576040517f08c379a0000000000000000000000000000000000000000000000000000000008152600401610aaf906135a8565b60405180910390fd5b600354600554610ac891906135f7565b4211610b09576040517f08c379a0000000000000000000000000000000000000000000000000000000008152600401610b009061375a565b60405180910390fd5b6001600760016101000a81548160ff02191690831515021790555060008060009054906101000a900473ffffffffffffffffffffffffffffffffffffffff1673ffffffffffffffffffffffffffffffffffffffff166370a08231306040518263ffffffff1660e01b8152600401610b809190613789565b602060405180830381865afa158015610b9d573d6000803e3d6000fd5b505050506040513d601f19601f82011682018060405250810190610bc191906137b9565b905060005b600880549050811015610d1657600060088281548110610be957610be8613697565b5b906000526020600020906005020190508060030160009054906101000a900460ff168015610c2657508060030160019054906101000a900460ff16155b15610d02576000606460628360020154610c4091906137e6565b610c4a9190613857565b90506000818360020154610c5e9190613888565b90506000821115610ce257610cd88360010160009054906101000a900473ffffffffffffffffffffffffffffffffffffffff168360008054906101000a900473ffffffffffffffffffffffffffffffffffffffff1673ffffffffffffffffffffffffffffffffffffffff166117f69092919063ffffffff16565b8183600401819055505b60018360030160016101000a81548160ff02191690831515021790555050505b508080610d0e906136c6565b915050610bc6565b50610d1f611875565b50565b606080606080606080610d33612249565b955095509550955095509550909192939495565b600073ffffffffffffffffffffffffffffffffffffffff16600b60009054906101000a900473ffffffffffffffffffffffffffffffffffffffff1673ffffffffffffffffffffffffffffffffffffffff1603610dd8576040517f08c379a0000000000000000000000000000000000000000000000000000000008152600401610dcf90613908565b60405180910390fd5b600160009054906101000a900473ffffffffffffffffffffffffffffffffffffffff1673ffffffffffffffffffffffffffffffffffffffff163373ffffffffffffffffffffffffffffffffffffffff1614610e68576040517f08c379a0000000000000000000000000000000000000000000000000000000008152600401610e5f906134d0565b60405180910390fd5b600760029054906101000a900460ff1615610eb8576040517f08c379a0000000000000000000000000000000000000000000000000000000008152600401610eaf9061353c565b60405180910390fd5b600760009054906101000a900460ff16610f07576040517f08c379a0000000000000000000000000000000000000000000000000000000008152600401610efe90613974565b60405180910390fd5b600760019054906101000a900460ff1615610f57576040517f08c379a0000000000000000000000000000000000000000000000000000000008152600401610f4e906135a8565b60405180910390fd5b600760009054906101000a900460ff16610fa6576040517f08c379a0000000000000000000000000000000000000000000000000000000008152600401610f9d90613974565b60405180910390fd5b600354600554610fb691906135f7565b421115611192576001600760016101000a81548160ff02191690831515021790555060005b60088054905081101561112b57600060088281548110610ffe57610ffd613697565b5b906000526020600020906005020190508060030160009054906101000a900460ff16801561103b57508060030160019054906101000a900460ff16155b1561111757600060646062836002015461105591906137e6565b61105f9190613857565b905060008183600201546110739190613888565b905060008211156110f7576110ed8360010160009054906101000a900473ffffffffffffffffffffffffffffffffffffffff168360008054906101000a900473ffffffffffffffffffffffffffffffffffffffff1673ffffffffffffffffffffffffffffffffffffffff166117f69092919063ffffffff16565b8183600401819055505b60018360030160016101000a81548160ff02191690831515021790555050505b508080611123906136c6565b915050610fdb565b50611134611875565b6001600760026101000a81548160ff021916908315150217905550426006819055507f821e8f282903f17bca18208015c4de756a7bbcd272fce239c6701cf1f9aed620426040516111859190612e08565b60405180910390a16117f3565b60008060009054906101000a900473ffffffffffffffffffffffffffffffffffffffff1673ffffffffffffffffffffffffffffffffffffffff166370a08231306040518263ffffffff1660e01b81526004016111ee9190613789565b602060405180830381865afa15801561120b573d6000803e3d6000fd5b505050506040513d601f19601f8201168201806040525081019061122f91906137b9565b90506000825167ffffffffffffffff81111561124e5761124d612b77565b5b60405190808252806020026020018201604052801561127c5781602001602082028036833780820191505090505b5090506000835167ffffffffffffffff81111561129c5761129b612b77565b5b6040519080825280602002602001820160405280156112ca5781602001602082028036833780820191505090505b50905060005b845181101561139e578481815181106112ec576112eb613697565b5b60200260200101516000015183828151811061130b5761130a613697565b5b602002602001019073ffffffffffffffffffffffffffffffffffffffff16908173ffffffffffffffffffffffffffffffffffffffff168152505084818151811061135857611357613697565b5b60200260200101516020015182828151811061137757611376613697565b5b602002602001019060ff16908160ff16815250508080611396906136c6565b9150506112d0565b50600080600b60009054906101000a900473ffffffffffffffffffffffffffffffffffffffff1673ffffffffffffffffffffffffffffffffffffffff1685858560026040516024016113f39493929190613a97565b6040516020818303038152906040527fa7607228000000000000000000000000000000000000000000000000000000007bffffffffffffffffffffffffffffffffffffffffffffffffffffffff19166020820180517bffffffffffffffffffffffffffffffffffffffffffffffffffffffff838183161783525050505060405161147d9190613b31565b600060405180830381855af49150503d80600081146114b8576040519150601f19603f3d011682016040523d82523d6000602084013e6114bd565b606091505b509150915081611502576040517f08c379a00000000000000000000000000000000000000000000000000000000081526004016114f990613b94565b60405180910390fd5b6000818060200190518101906115189190613c77565b905060005b875181101561167b57600086828151811061153b5761153a613697565b5b60200260200101519050600083838151811061155a57611559613697565b5b602002602001015190506000811115611666576115b8828260008054906101000a900473ffffffffffffffffffffffffffffffffffffffff1673ffffffffffffffffffffffffffffffffffffffff166117f69092919063ffffffff16565b6000600960008473ffffffffffffffffffffffffffffffffffffffff1673ffffffffffffffffffffffffffffffffffffffff168152602001908152602001600020549050816008828154811061161157611610613697565b5b90600052602060002090600502016004018190555060016008828154811061163c5761163b613697565b5b906000526020600020906005020160030160016101000a81548160ff021916908315150217905550505b50508080611673906136c6565b91505061151d565b5060008060009054906101000a900473ffffffffffffffffffffffffffffffffffffffff1673ffffffffffffffffffffffffffffffffffffffff166370a08231306040518263ffffffff1660e01b81526004016116d89190613789565b602060405180830381865afa1580156116f5573d6000803e3d6000fd5b505050506040513d601f19601f8201168201806040525081019061171991906137b9565b9050600081111561179257611791600160009054906101000a900473ffffffffffffffffffffffffffffffffffffffff168260008054906101000a900473ffffffffffffffffffffffffffffffffffffffff1673ffffffffffffffffffffffffffffffffffffffff166117f69092919063ffffffff16565b5b6001600760026101000a81548160ff021916908315150217905550426006819055507f821e8f282903f17bca18208015c4de756a7bbcd272fce239c6701cf1f9aed620426040516117e39190612e08565b60405180910390a1505050505050505b50565b611870838473ffffffffffffffffffffffffffffffffffffffff1663a9059cbb8585604051602401611829929190613cc0565b604051602081830303815290604052915060e01b6020820180517bffffffffffffffffffffffffffffffffffffffffffffffffffffffff83818316178352505050506126c0565b505050565b60008060009054906101000a900473ffffffffffffffffffffffffffffffffffffffff1673ffffffffffffffffffffffffffffffffffffffff166370a08231306040518263ffffffff1660e01b81526004016118d19190613789565b602060405180830381865afa1580156118ee573d6000803e3d6000fd5b505050506040513d601f19601f8201168201806040525081019061191291906137b9565b9050600081111561198b5761198a600160009054906101000a900473ffffffffffffffffffffffffffffffffffffffff168260008054906101000a900473ffffffffffffffffffffffffffffffffffffffff1673ffffffffffffffffffffffffffffffffffffffff166117f69092919063ffffffff16565b5b50565b60008060009054906101000a900473ffffffffffffffffffffffffffffffffffffffff1673ffffffffffffffffffffffffffffffffffffffff166370a08231306040518263ffffffff1660e01b81526004016119ea9190613789565b602060405180830381865afa158015611a07573d6000803e3d6000fd5b505050506040513d601f19601f82011682018060405250810190611a2b91906137b9565b905090565b600160009054906101000a900473ffffffffffffffffffffffffffffffffffffffff1673ffffffffffffffffffffffffffffffffffffffff163373ffffffffffffffffffffffffffffffffffffffff1614611ac0576040517f08c379a0000000000000000000000000000000000000000000000000000000008152600401611ab7906134d0565b60405180910390fd5b600760029054906101000a900460ff1615611b10576040517f08c379a0000000000000000000000000000000000000000000000000000000008152600401611b079061353c565b60405180910390fd5b600760019054906101000a900460ff1615611b60576040517f08c379a0000000000000000000000000000000000000000000000000000000008152600401611b57906135a8565b60405180910390fd5b6001600760016101000a81548160ff02191690831515021790555060005b600880549050811015611d065760088181548110611b9f57611b9e613697565b5b906000526020600020906005020160030160009054906101000a900460ff168015611bfa575060088181548110611bd957611bd8613697565b5b906000526020600020906005020160030160019054906101000a900460ff16155b15611cf357611cb460088281548110611c1657611c15613697565b5b906000526020600020906005020160010160009054906101000a900473ffffffffffffffffffffffffffffffffffffffff1660088381548110611c5c57611c5b613697565b5b90600052602060002090600502016002015460008054906101000a900473ffffffffffffffffffffffffffffffffffffffff1673ffffffffffffffffffffffffffffffffffffffff166117f69092919063ffffffff16565b600160088281548110611cca57611cc9613697565b5b906000526020600020906005020160030160016101000a81548160ff0219169083151502179055505b8080611cfe906136c6565b915050611b7e565b50611d0f611875565b565b600080600080600080600080600254600354600454600554600654600760009054906101000a900460ff16600760019054906101000a900460ff16600760029054906101000a900460ff16975097509750975097509750975097509091929394959697565b600a60003373ffffffffffffffffffffffffffffffffffffffff1673ffffffffffffffffffffffffffffffffffffffff16815260200190815260200160002060009054906101000a900460ff16611e02576040517f08c379a0000000000000000000000000000000000000000000000000000000008152600401611df990613d35565b60405180910390fd5b600760009054906101000a900460ff1615611e52576040517f08c379a0000000000000000000000000000000000000000000000000000000008152600401611e4990613da1565b60405180910390fd5b600760019054906101000a900460ff1615611ea2576040517f08c379a0000000000000000000000000000000000000000000000000000000008152600401611e99906135a8565b60405180910390fd5b600760029054906101000a900460ff1615611ef2576040517f08c379a0000000000000000000000000000000000000000000000000000000008152600401611ee99061353c565b60405180910390fd5b600254600454611f0291906135f7565b421115611f4d57611f11612762565b7f821e8f282903f17bca18208015c4de756a7bbcd272fce239c6701cf1f9aed62042604051611f409190612e08565b60405180910390a16120d9565b6000600960003373ffffffffffffffffffffffffffffffffffffffff1673ffffffffffffffffffffffffffffffffffffffff168152602001908152602001600020549050600060088281548110611fa757611fa6613697565b5b906000526020600020906005020190508060030160009054906101000a900460ff1615612009576040517f08c379a000000000000000000000000000000000000000000000000000000000815260040161200090613e0d565b60405180910390fd5b61205a3330836002015460008054906101000a900473ffffffffffffffffffffffffffffffffffffffff1673ffffffffffffffffffffffffffffffffffffffff16612913909392919063ffffffff16565b60018160030160006101000a81548160ff02191690831515021790555061207f612995565b3373ffffffffffffffffffffffffffffffffffffffff167f19e6e409bcd6fbaad3b5921f8957e014f2c5aa12d3495c01f7590a6ed80561fe8260000183600201546040516120ce929190613f26565b60405180910390a250505b565b6120e3612afd565b600882815481106120f7576120f6613697565b5b90600052602060002090600502016040518060c001604052908160008201805461212090613e5c565b80601f016020809104026020016040519081016040528092919081815260200182805461214c90613e5c565b80156121995780601f1061216e57610100808354040283529160200191612199565b820191906000526020600020905b81548152906001019060200180831161217c57829003601f168201915b505050505081526020016001820160009054906101000a900473ffffffffffffffffffffffffffffffffffffffff1673ffffffffffffffffffffffffffffffffffffffff1673ffffffffffffffffffffffffffffffffffffffff168152602001600282015481526020016003820160009054906101000a900460ff161515151581526020016003820160019054906101000a900460ff161515151581526020016004820154815250509050919050565b606080606080606080600060088054905090508067ffffffffffffffff81111561227657612275612b77565b5b6040519080825280602002602001820160405280156122a957816020015b60608152602001906001900390816122945790505b5096508067ffffffffffffffff8111156122c6576122c5612b77565b5b6040519080825280602002602001820160405280156122f45781602001602082028036833780820191505090505b5095508067ffffffffffffffff81111561231157612310612b77565b5b60405190808252806020026020018201604052801561233f5781602001602082028036833780820191505090505b5094508067ffffffffffffffff81111561235c5761235b612b77565b5b60405190808252806020026020018201604052801561238a5781602001602082028036833780820191505090505b5093508067ffffffffffffffff8111156123a7576123a6612b77565b5b6040519080825280602002602001820160405280156123d55781602001602082028036833780820191505090505b5092508067ffffffffffffffff8111156123f2576123f1612b77565b5b6040519080825280602002602001820160405280156124205781602001602082028036833780820191505090505b50915060005b818110156126b65760006008828154811061244457612443613697565b5b90600052602060002090600502016040518060c001604052908160008201805461246d90613e5c565b80601f016020809104026020016040519081016040528092919081815260200182805461249990613e5c565b80156124e65780601f106124bb576101008083540402835291602001916124e6565b820191906000526020600020905b8154815290600101906020018083116124c957829003601f168201915b505050505081526020016001820160009054906101000a900473ffffffffffffffffffffffffffffffffffffffff1673ffffffffffffffffffffffffffffffffffffffff1673ffffffffffffffffffffffffffffffffffffffff168152602001600282015481526020016003820160009054906101000a900460ff161515151581526020016003820160019054906101000a900460ff16151515158152602001600482015481525050905080600001518983815181106125a9576125a8613697565b5b602002602001018190525080602001518883815181106125cc576125cb613697565b5b602002602001019073ffffffffffffffffffffffffffffffffffffffff16908173ffffffffffffffffffffffffffffffffffffffff1681525050806040015187838151811061261e5761261d613697565b5b602002602001018181525050806060015186838151811061264257612641613697565b5b602002602001019015159081151581525050806080015185838151811061266c5761266b613697565b5b6020026020010190151590811515815250508060a0015184838151811061269657612695613697565b5b6020026020010181815250505080806126ae906136c6565b915050612426565b5050909192939495565b600080602060008451602086016000885af1806126e3576040513d6000823e3d81fd5b3d9250600051915050600082146126fe57600181141561271a565b60008473ffffffffffffffffffffffffffffffffffffffff163b145b1561275c57836040517f5274afe70000000000000000000000000000000000000000000000000000000081526004016127539190613789565b60405180910390fd5b50505050565b6001600760016101000a81548160ff02191690831515021790555060005b60088054905081101561290857600881815481106127a1576127a0613697565b5b906000526020600020906005020160030160009054906101000a900460ff1680156127fc5750600881815481106127db576127da613697565b5b906000526020600020906005020160030160019054906101000a900460ff16155b156128f5576128b66008828154811061281857612817613697565b5b906000526020600020906005020160010160009054906101000a900473ffffffffffffffffffffffffffffffffffffffff166008838154811061285e5761285d613697565b5b90600052602060002090600502016002015460008054906101000a900473ffffffffffffffffffffffffffffffffffffffff1673ffffffffffffffffffffffffffffffffffffffff166117f69092919063ffffffff16565b6001600882815481106128cc576128cb613697565b5b906000526020600020906005020160030160016101000a81548160ff0219169083151502179055505b8080612900906136c6565b915050612780565b50612911611875565b565b61298f848573ffffffffffffffffffffffffffffffffffffffff166323b872dd86868660405160240161294893929190613f56565b604051602081830303815290604052915060e01b6020820180517bffffffffffffffffffffffffffffffffffffffffffffffffffffffff83818316178352505050506126c0565b50505050565b600073ffffffffffffffffffffffffffffffffffffffff16600b60009054906101000a900473ffffffffffffffffffffffffffffffffffffffff1673ffffffffffffffffffffffffffffffffffffffff1603612a26576040517f08c379a0000000000000000000000000000000000000000000000000000000008152600401612a1d90613908565b60405180910390fd5b600060019050600760009054906101000a900460ff16612afa5760005b600880549050811015612aa35760088181548110612a6457612a63613697565b5b906000526020600020906005020160030160009054906101000a900460ff16612a905760009150612aa3565b8080612a9b906136c6565b915050612a43565b508015612af9576001600760006101000a81548160ff021916908315150217905550426005819055507f780fcd6f670bec2e3c1a567dfc85156e0a2a05927c566f714abbddb8ba7f1e5660405160405180910390a15b5b50565b6040518060c0016040528060608152602001600073ffffffffffffffffffffffffffffffffffffffff16815260200160008152602001600015158152602001600015158152602001600081525090565b6000604051905090565b600080fd5b600080fd5b600080fd5b6000601f19601f8301169050919050565b7f4e487b7100000000000000000000000000000000000000000000000000000000600052604160045260246000fd5b612baf82612b66565b810181811067ffffffffffffffff82111715612bce57612bcd612b77565b5b80604052505050565b6000612be1612b4d565b9050612bed8282612ba6565b919050565b600067ffffffffffffffff821115612c0d57612c0c612b77565b5b602082029050602081019050919050565b600080fd5b600080fd5b600073ffffffffffffffffffffffffffffffffffffffff82169050919050565b6000612c5382612c28565b9050919050565b612c6381612c48565b8114612c6e57600080fd5b50565b600081359050612c8081612c5a565b92915050565b600060ff82169050919050565b612c9c81612c86565b8114612ca757600080fd5b50565b600081359050612cb981612c93565b92915050565b600060408284031215612cd557612cd4612c23565b5b612cdf6040612bd7565b90506000612cef84828501612c71565b6000830152506020612d0384828501612caa565b60208301525092915050565b6000612d22612d1d84612bf2565b612bd7565b90508083825260208201905060408402830185811115612d4557612d44612c1e565b5b835b81811015612d6e5780612d5a8882612cbf565b845260208401935050604081019050612d47565b5050509392505050565b600082601f830112612d8d57612d8c612b61565b5b8135612d9d848260208601612d0f565b91505092915050565b600060208284031215612dbc57612dbb612b57565b5b600082013567ffffffffffffffff811115612dda57612dd9612b5c565b5b612de684828501612d78565b91505092915050565b6000819050919050565b612e0281612def565b82525050565b6000602082019050612e1d6000830184612df9565b92915050565b60008115159050919050565b612e3881612e23565b82525050565b6000602082019050612e536000830184612e2f565b92915050565b600061010082019050612e6f600083018b612df9565b612e7c602083018a612df9565b612e896040830189612df9565b612e966060830188612df9565b612ea36080830187612df9565b612eb060a0830186612e2f565b612ebd60c0830185612e2f565b612eca60e0830184612e2f565b9998505050505050505050565b612ee081612def565b8114612eeb57600080fd5b50565b600081359050612efd81612ed7565b92915050565b600060208284031215612f1957612f18612b57565b5b6000612f2784828501612eee565b91505092915050565b600081519050919050565b600082825260208201905092915050565b60005b83811015612f6a578082015181840152602081019050612f4f565b60008484015250505050565b6000612f8182612f30565b612f8b8185612f3b565b9350612f9b818560208601612f4c565b612fa481612b66565b840191505092915050565b612fb881612c48565b82525050565b612fc781612def565b82525050565b612fd681612e23565b82525050565b600060c0830160008301518482036000860152612ff98282612f76565b915050602083015161300e6020860182612faf565b5060408301516130216040860182612fbe565b5060608301516130346060860182612fcd565b5060808301516130476080860182612fcd565b5060a083015161305a60a0860182612fbe565b508091505092915050565b6000602082019050818103600083015261307f8184612fdc565b905092915050565b600081519050919050565b600082825260208201905092915050565b6000819050602082019050919050565b60006130bf8383612f76565b905092915050565b6000602082019050919050565b60006130df82613087565b6130e98185613092565b9350836020820285016130fb856130a3565b8060005b85811015613137578484038952815161311885826130b3565b9450613123836130c7565b925060208a019950506001810190506130ff565b50829750879550505050505092915050565b600081519050919050565b600082825260208201905092915050565b6000819050602082019050919050565b60006131818383612faf565b60208301905092915050565b6000602082019050919050565b60006131a582613149565b6131af8185613154565b93506131ba83613165565b8060005b838110156131eb5781516131d28882613175565b97506131dd8361318d565b9250506001810190506131be565b5085935050505092915050565b600081519050919050565b600082825260208201905092915050565b6000819050602082019050919050565b60006132308383612fbe565b60208301905092915050565b6000602082019050919050565b6000613254826131f8565b61325e8185613203565b935061326983613214565b8060005b8381101561329a5781516132818882613224565b975061328c8361323c565b92505060018101905061326d565b5085935050505092915050565b600081519050919050565b600082825260208201905092915050565b6000819050602082019050919050565b60006132df8383612fcd565b60208301905092915050565b6000602082019050919050565b6000613303826132a7565b61330d81856132b2565b9350613318836132c3565b8060005b8381101561334957815161333088826132d3565b975061333b836132eb565b92505060018101905061331c565b5085935050505092915050565b600060c082019050818103600083015261337081896130d4565b90508181036020830152613384818861319a565b905081810360408301526133988187613249565b905081810360608301526133ac81866132f8565b905081810360808301526133c081856132f8565b905081810360a08301526133d48184613249565b9050979650505050505050565b600082825260208201905092915050565b7f47616d6520616c72656164792066696e69736865640000000000000000000000600082015250565b60006134286015836133e1565b9150613433826133f2565b602082019050919050565b600060208201905081810360008301526134578161341b565b9050919050565b7f4f6e6c7920746865206f776e65722063616e2063616c6c20746869732066756e60008201527f6374696f6e000000000000000000000000000000000000000000000000000000602082015250565b60006134ba6025836133e1565b91506134c58261345e565b604082019050919050565b600060208201905081810360008301526134e9816134ad565b9050919050565b7f47616d6520697320616c72656164792066696e69736865640000000000000000600082015250565b60006135266018836133e1565b9150613531826134f0565b602082019050919050565b6000602082019050818103600083015261355581613519565b9050919050565b7f47616d652069732061626f727465640000000000000000000000000000000000600082015250565b6000613592600f836133e1565b915061359d8261355c565b602082019050919050565b600060208201905081810360008301526135c181613585565b9050919050565b7f4e487b7100000000000000000000000000000000000000000000000000000000600052601160045260246000fd5b600061360282612def565b915061360d83612def565b9250828201905080821115613625576136246135c8565b5b92915050565b7f42657474696e672074696d65206e6f7420796574206f76657200000000000000600082015250565b60006136616019836133e1565b915061366c8261362b565b602082019050919050565b6000602082019050818103600083015261369081613654565b9050919050565b7f4e487b7100000000000000000000000000000000000000000000000000000000600052603260045260246000fd5b60006136d182612def565b91507fffffffffffffffffffffffffffffffffffffffffffffffffffffffffffffffff8203613703576137026135c8565b5b600182019050919050565b7f47616d652074696d65206e6f7420796574206f76657200000000000000000000600082015250565b60006137446016836133e1565b915061374f8261370e565b602082019050919050565b6000602082019050818103600083015261377381613737565b9050919050565b61378381612c48565b82525050565b600060208201905061379e600083018461377a565b92915050565b6000815190506137b381612ed7565b92915050565b6000602082840312156137cf576137ce612b57565b5b60006137dd848285016137a4565b91505092915050565b60006137f182612def565b91506137fc83612def565b925082820261380a81612def565b91508282048414831517613821576138206135c8565b5b5092915050565b7f4e487b7100000000000000000000000000000000000000000000000000000000600052601260045260246000fd5b600061386282612def565b915061386d83612def565b92508261387d5761387c613828565b5b828204905092915050565b600061389382612def565b915061389e83612def565b92508282039050818111156138b6576138b56135c8565b5b92915050565b7f496e76616c6964206c6f67696320636f6e747261637420616464726573730000600082015250565b60006138f2601e836133e1565b91506138fd826138bc565b602082019050919050565b60006020820190508181036000830152613921816138e5565b9050919050565b7f42657474696e67206e6f7420636f6d706c657465642079657400000000000000600082015250565b600061395e6019836133e1565b915061396982613928565b602082019050919050565b6000602082019050818103600083015261398d81613951565b9050919050565b600081519050919050565b600082825260208201905092915050565b6000819050602082019050919050565b6139c981612c86565b82525050565b60006139db83836139c0565b60208301905092915050565b6000602082019050919050565b60006139ff82613994565b613a09818561399f565b9350613a14836139b0565b8060005b83811015613a45578151613a2c88826139cf565b9750613a37836139e7565b925050600181019050613a18565b5085935050505092915050565b6000819050919050565b6000819050919050565b6000613a81613a7c613a7784613a52565b613a5c565b612c86565b9050919050565b613a9181613a66565b82525050565b6000608082019050613aac6000830187612df9565b8181036020830152613abe818661319a565b90508181036040830152613ad281856139f4565b9050613ae16060830184613a88565b95945050505050565b600081519050919050565b600081905092915050565b6000613b0b82613aea565b613b158185613af5565b9350613b25818560208601612f4c565b80840191505092915050565b6000613b3d8284613b00565b915081905092915050565b7f44656c656761746563616c6c206661696c656400000000000000000000000000600082015250565b6000613b7e6013836133e1565b9150613b8982613b48565b602082019050919050565b60006020820190508181036000830152613bad81613b71565b9050919050565b600067ffffffffffffffff821115613bcf57613bce612b77565b5b602082029050602081019050919050565b6000613bf3613bee84613bb4565b612bd7565b90508083825260208201905060208402830185811115613c1657613c15612c1e565b5b835b81811015613c3f5780613c2b88826137a4565b845260208401935050602081019050613c18565b5050509392505050565b600082601f830112613c5e57613c5d612b61565b5b8151613c6e848260208601613be0565b91505092915050565b600060208284031215613c8d57613c8c612b57565b5b600082015167ffffffffffffffff811115613cab57613caa612b5c565b5b613cb784828501613c49565b91505092915050565b6000604082019050613cd5600083018561377a565b613ce26020830184612df9565b9392505050565b7f506c6179657220646f6573206e6f742065786973740000000000000000000000600082015250565b6000613d1f6015836133e1565b9150613d2a82613ce9565b602082019050919050565b60006020820190508181036000830152613d4e81613d12565b9050919050565b7f42657474696e6720616c726561647920636f6d706c6574656400000000000000600082015250565b6000613d8b6019836133e1565b9150613d9682613d55565b602082019050919050565b60006020820190508181036000830152613dba81613d7e565b9050919050565b7f416c726561647920706169640000000000000000000000000000000000000000600082015250565b6000613df7600c836133e1565b9150613e0282613dc1565b602082019050919050565b60006020820190508181036000830152613e2681613dea565b9050919050565b7f4e487b7100000000000000000000000000000000000000000000000000000000600052602260045260246000fd5b60006002820490506001821680613e7457607f821691505b602082108103613e8757613e86613e2d565b5b50919050565b60008190508160005260206000209050919050565b60008154613eaf81613e5c565b613eb981866133e1565b94506001821660008114613ed45760018114613eea57613f1d565b60ff198316865281151560200286019350613f1d565b613ef385613e8d565b60005b83811015613f1557815481890152600182019150602081019050613ef6565b808801955050505b50505092915050565b60006040820190508181036000830152613f408185613ea2565b9050613f4f6020830184612df9565b9392505050565b6000606082019050613f6b600083018661377a565b613f78602083018561377a565b613f856040830184612df9565b94935050505056fea264697066735822122097c64ce47f526d379bcbf6d18e50990efaba2605c22ace130cb9cf4b71a312dc64736f6c63430008140033",
  "linkReferences": {},
  "deployedLinkReferences": {}
}