{
  "_format": "hh-sol-artifact-1",
  "contractName": "DelegateCallGameStorage",
  "sourceName": "contracts/Game.sol",
  "abi": [
    {
      "inputs": [
        {
          "components": [
            {
              "internalType": "string",
              "name": "name",
              "type": "string"
            },
            {
              "internalType": "address",
              "name": "wallet",
              "type": "address"
            },
            {
              "internalType": "uint256",
              "name": "bet",
              "type": "uint256"
            },
            {
              "internalType": "bool",
              "name": "isPaid",
              "type": "bool"
            },
            {
              "internalType": "bool",
              "name": "isPaidOut",
              "type": "bool"
            },
            {
              "internalType": "uint256",
              "name": "result",
              "type": "uint256"
            }
          ],
          "internalType": "struct GameBase.Player[]",
          "name": "_playerList",
          "type": "tuple[]"
        },
        {
          "internalType": "address",
          "name": "logicAddr",
          "type": "address"
        },
        {
          "internalType": "uint256",
          "name": "_bettingMaxTime",
          "type": "uint256"
        },
        {
          "internalType": "uint256",
          "name": "_gameMaxTime",
          "type": "uint256"
        },
        {
          "internalType": "address",
          "name": "_tokenAddress",
          "type": "address"
        }
      ],
      "stateMutability": "nonpayable",
      "type": "constructor"
    },
    {
      "inputs": [
        {
          "internalType": "address",
          "name": "token",
          "type": "address"
        }
      ],
      "name": "SafeERC20FailedOperation",
      "type": "error"
    },
    {
      "anonymous": false,
      "inputs": [],
      "name": "BettingFinished",
      "type": "event"
    },
    {
      "anonymous": false,
      "inputs": [
        {
          "indexed": false,
          "internalType": "uint256",
          "name": "timestamp",
          "type": "uint256"
        }
      ],
      "name": "GameFinalized",
      "type": "event"
    },
    {
      "anonymous": false,
      "inputs": [
        {
          "indexed": true,
          "internalType": "address",
          "name": "wallet",
          "type": "address"
        },
        {
          "indexed": false,
          "internalType": "string",
          "name": "name",
          "type": "string"
        },
        {
          "indexed": false,
          "internalType": "uint256",
          "name": "bet",
          "type": "uint256"
        }
      ],
      "name": "LogBet",
      "type": "event"
    },
    {
      "inputs": [],
      "name": "abortGame",
      "outputs": [],
      "stateMutability": "nonpayable",
      "type": "function"
    },
    {
      "inputs": [],
      "name": "deposit",
      "outputs": [],
      "stateMutability": "nonpayable",
      "type": "function"
    },
    {
      "inputs": [
        {
          "components": [
            {
              "internalType": "address",
              "name": "wallet",
              "type": "address"
            },
            {
              "internalType": "uint8",
              "name": "percent",
              "type": "uint8"
            }
          ],
          "internalType": "struct GameBase.PlayerResult[]",
          "name": "_playerResultList",
          "type": "tuple[]"
        }
      ],
      "name": "finish",
      "outputs": [],
      "stateMutability": "nonpayable",
      "type": "function"
    },
    {
      "inputs": [],
      "name": "getAllPlayers",
      "outputs": [
        {
          "internalType": "string[]",
          "name": "names",
          "type": "string[]"
        },
        {
          "internalType": "address[]",
          "name": "wallets",
          "type": "address[]"
        },
        {
          "internalType": "uint256[]",
          "name": "bets",
          "type": "uint256[]"
        },
        {
          "internalType": "bool[]",
          "name": "isPaid",
          "type": "bool[]"
        },
        {
          "internalType": "bool[]",
          "name": "isPaidOut",
          "type": "bool[]"
        },
        {
          "internalType": "uint256[]",
          "name": "results",
          "type": "uint256[]"
        }
      ],
      "stateMutability": "view",
      "type": "function"
    },
    {
      "inputs": [],
      "name": "getContractBalance",
      "outputs": [
        {
          "internalType": "uint256",
          "name": "",
          "type": "uint256"
        }
      ],
      "stateMutability": "view",
      "type": "function"
    },
    {
      "inputs": [],
      "name": "getGameData",
      "outputs": [
        {
          "internalType": "uint256",
          "name": "bettingMaxTime",
          "type": "uint256"
        },
        {
          "internalType": "uint256",
          "name": "gameMaxTime",
          "type": "uint256"
        },
        {
          "internalType": "uint256",
          "name": "createdAt",
          "type": "uint256"
        },
        {
          "internalType": "uint256",
          "name": "startedAt",
          "type": "uint256"
        },
        {
          "internalType": "uint256",
          "name": "finishedAt",
          "type": "uint256"
        },
        {
          "internalType": "bool",
          "name": "isBettingComplete",
          "type": "bool"
        },
        {
          "internalType": "bool",
          "name": "isGameAborted",
          "type": "bool"
        },
        {
          "internalType": "bool",
          "name": "isGameFinished",
          "type": "bool"
        }
      ],
      "stateMutability": "view",
      "type": "function"
    },
    {
      "inputs": [
        {
          "internalType": "uint256",
          "name": "index",
          "type": "uint256"
        }
      ],
      "name": "getPlayer",
      "outputs": [
        {
          "components": [
            {
              "internalType": "string",
              "name": "name",
              "type": "string"
            },
            {
              "internalType": "address",
              "name": "wallet",
              "type": "address"
            },
            {
              "internalType": "uint256",
              "name": "bet",
              "type": "uint256"
            },
            {
              "internalType": "bool",
              "name": "isPaid",
              "type": "bool"
            },
            {
              "internalType": "bool",
              "name": "isPaidOut",
              "type": "bool"
            },
            {
              "internalType": "uint256",
              "name": "result",
              "type": "uint256"
            }
          ],
          "internalType": "struct GameBase.Player",
          "name": "",
          "type": "tuple"
        }
      ],
      "stateMutability": "view",
      "type": "function"
    },
    {
      "inputs": [],
      "name": "isFinished",
      "outputs": [
        {
          "internalType": "bool",
          "name": "",
          "type": "bool"
        }
      ],
      "stateMutability": "view",
      "type": "function"
    },
    {
      "inputs": [],
      "name": "withdrawRemainingBalance",
      "outputs": [],
      "stateMutability": "nonpayable",
      "type": "function"
    }
  ],
  "bytecode": "0x60806040526000600760006101000a81548160ff0219169083151502179055506000600760016101000a81548160ff0219169083151502179055506000600760026101000a81548160ff0219169083151502179055503480156200006257600080fd5b506040516200438038038062004380833981810160405281019062000088919062000ada565b6200009c858585856200017460201b60201c565b600073ffffffffffffffffffffffffffffffffffffffff168173ffffffffffffffffffffffffffffffffffffffff16036200010e576040517f08c379a0000000000000000000000000000000000000000000000000000000008152600401620001059062000be2565b60405180910390fd5b806000806101000a81548173ffffffffffffffffffffffffffffffffffffffff021916908373ffffffffffffffffffffffffffffffffffffffff1602179055506000600b60146101000a81548160ff021916908315150217905550505050505062001237565b6000845111620001bb576040517f08c379a0000000000000000000000000000000000000000000000000000000008152600401620001b29062000c54565b60405180910390fd5b600073ffffffffffffffffffffffffffffffffffffffff168373ffffffffffffffffffffffffffffffffffffffff16036200022d576040517f08c379a0000000000000000000000000000000000000000000000000000000008152600401620002249062000cc6565b60405180910390fd5b6000821162000273576040517f08c379a00000000000000000000000000000000000000000000000000000000081526004016200026a9062000d5e565b60405180910390fd5b60008111620002b9576040517f08c379a0000000000000000000000000000000000000000000000000000000008152600401620002b09062000dd0565b60405180910390fd5b33600160006101000a81548173ffffffffffffffffffffffffffffffffffffffff021916908373ffffffffffffffffffffffffffffffffffffffff1602179055504260048190555082600b60006101000a81548173ffffffffffffffffffffffffffffffffffffffff021916908373ffffffffffffffffffffffffffffffffffffffff160217905550816002819055508060038190555060005b84518110156200068d57600a600086838151811062000377576200037662000df2565b5b60200260200101516020015173ffffffffffffffffffffffffffffffffffffffff1673ffffffffffffffffffffffffffffffffffffffff16815260200190815260200160002060009054906101000a900460ff16156200040e576040517f08c379a0000000000000000000000000000000000000000000000000000000008152600401620004059062000e71565b60405180910390fd5b60086040518060c0016040528087848151811062000431576200043062000df2565b5b602002602001015160000151815260200187848151811062000458576200045762000df2565b5b60200260200101516020015173ffffffffffffffffffffffffffffffffffffffff16815260200187848151811062000495576200049462000df2565b5b6020026020010151604001518152602001600015158152602001600015158152602001600081525090806001815401808255809150506001900390600052602060002090600502016000909190919091506000820151816000019081620004fd9190620010d4565b5060208201518160010160006101000a81548173ffffffffffffffffffffffffffffffffffffffff021916908373ffffffffffffffffffffffffffffffffffffffff1602179055506040820151816002015560608201518160030160006101000a81548160ff02191690831515021790555060808201518160030160016101000a81548160ff02191690831515021790555060a0820151816004015550508060096000878481518110620005b657620005b562000df2565b5b60200260200101516020015173ffffffffffffffffffffffffffffffffffffffff1673ffffffffffffffffffffffffffffffffffffffff168152602001908152602001600020819055506001600a60008784815181106200061c576200061b62000df2565b5b60200260200101516020015173ffffffffffffffffffffffffffffffffffffffff1673ffffffffffffffffffffffffffffffffffffffff16815260200190815260200160002060006101000a81548160ff021916908315150217905550806200068590620011ea565b905062000353565b5050505050565b6000604051905090565b600080fd5b600080fd5b600080fd5b6000601f19601f8301169050919050565b7f4e487b7100000000000000000000000000000000000000000000000000000000600052604160045260246000fd5b620006f882620006ad565b810181811067ffffffffffffffff821117156200071a5762000719620006be565b5b80604052505050565b60006200072f62000694565b90506200073d8282620006ed565b919050565b600067ffffffffffffffff82111562000760576200075f620006be565b5b602082029050602081019050919050565b600080fd5b600080fd5b600080fd5b600080fd5b600067ffffffffffffffff821115620007a357620007a2620006be565b5b620007ae82620006ad565b9050602081019050919050565b60005b83811015620007db578082015181840152602081019050620007be565b60008484015250505050565b6000620007fe620007f88462000785565b62000723565b9050828152602081018484840111156200081d576200081c62000780565b5b6200082a848285620007bb565b509392505050565b600082601f8301126200084a5762000849620006a8565b5b81516200085c848260208601620007e7565b91505092915050565b600073ffffffffffffffffffffffffffffffffffffffff82169050919050565b6000620008928262000865565b9050919050565b620008a48162000885565b8114620008b057600080fd5b50565b600081519050620008c48162000899565b92915050565b6000819050919050565b620008df81620008ca565b8114620008eb57600080fd5b50565b600081519050620008ff81620008d4565b92915050565b60008115159050919050565b6200091c8162000905565b81146200092857600080fd5b50565b6000815190506200093c8162000911565b92915050565b600060c082840312156200095b576200095a62000776565b5b6200096760c062000723565b9050600082015167ffffffffffffffff8111156200098a57620009896200077b565b5b620009988482850162000832565b6000830152506020620009ae84828501620008b3565b6020830152506040620009c484828501620008ee565b6040830152506060620009da848285016200092b565b6060830152506080620009f0848285016200092b565b60808301525060a062000a0684828501620008ee565b60a08301525092915050565b600062000a2962000a238462000742565b62000723565b9050808382526020820190506020840283018581111562000a4f5762000a4e62000771565b5b835b8181101562000a9d57805167ffffffffffffffff81111562000a785762000a77620006a8565b5b80860162000a87898262000942565b8552602085019450505060208101905062000a51565b5050509392505050565b600082601f83011262000abf5762000abe620006a8565b5b815162000ad184826020860162000a12565b91505092915050565b600080600080600060a0868803121562000af95762000af86200069e565b5b600086015167ffffffffffffffff81111562000b1a5762000b19620006a3565b5b62000b288882890162000aa7565b955050602062000b3b88828901620008b3565b945050604062000b4e88828901620008ee565b935050606062000b6188828901620008ee565b925050608062000b7488828901620008b3565b9150509295509295909350565b600082825260208201905092915050565b7f546f6b656e2061646472657373207a65726f0000000000000000000000000000600082015250565b600062000bca60128362000b81565b915062000bd78262000b92565b602082019050919050565b6000602082019050818103600083015262000bfd8162000bbb565b9050919050565b7f506c61796572206c6973742063616e6e6f7420626520656d7074790000000000600082015250565b600062000c3c601b8362000b81565b915062000c498262000c04565b602082019050919050565b6000602082019050818103600083015262000c6f8162000c2d565b9050919050565b7f496e76616c6964206c6f67696320636f6e747261637420616464726573730000600082015250565b600062000cae601e8362000b81565b915062000cbb8262000c76565b602082019050919050565b6000602082019050818103600083015262000ce18162000c9f565b9050919050565b7f42657474696e672074696d65206d75737420626520677265617465722074686160008201527f6e20300000000000000000000000000000000000000000000000000000000000602082015250565b600062000d4660238362000b81565b915062000d538262000ce8565b604082019050919050565b6000602082019050818103600083015262000d798162000d37565b9050919050565b7f47616d652074696d65206d7573742062652067726561746572207468616e2030600082015250565b600062000db860208362000b81565b915062000dc58262000d80565b602082019050919050565b6000602082019050818103600083015262000deb8162000da9565b9050919050565b7f4e487b7100000000000000000000000000000000000000000000000000000000600052603260045260246000fd5b7f506c6179657220616c7265616479206578697374730000000000000000000000600082015250565b600062000e5960158362000b81565b915062000e668262000e21565b602082019050919050565b6000602082019050818103600083015262000e8c8162000e4a565b9050919050565b600081519050919050565b7f4e487b7100000000000000000000000000000000000000000000000000000000600052602260045260246000fd5b6000600282049050600182168062000ee657607f821691505b60208210810362000efc5762000efb62000e9e565b5b50919050565b60008190508160005260206000209050919050565b60006020601f8301049050919050565b600082821b905092915050565b60006008830262000f667fffffffffffffffffffffffffffffffffffffffffffffffffffffffffffffffff8262000f27565b62000f72868362000f27565b95508019841693508086168417925050509392505050565b6000819050919050565b600062000fb562000faf62000fa984620008ca565b62000f8a565b620008ca565b9050919050565b6000819050919050565b62000fd18362000f94565b62000fe962000fe08262000fbc565b84845462000f34565b825550505050565b600090565b6200100062000ff1565b6200100d81848462000fc6565b505050565b5b8181101562001035576200102960008262000ff6565b60018101905062001013565b5050565b601f82111562001084576200104e8162000f02565b620010598462000f17565b8101602085101562001069578190505b62001081620010788562000f17565b83018262001012565b50505b505050565b600082821c905092915050565b6000620010a96000198460080262001089565b1980831691505092915050565b6000620010c4838362001096565b9150826002028217905092915050565b620010df8262000e93565b67ffffffffffffffff811115620010fb57620010fa620006be565b5b62001107825462000ecd565b6200111482828562001039565b600060209050601f8311600181146200114c576000841562001137578287015190505b620011438582620010b6565b865550620011b3565b601f1984166200115c8662000f02565b60005b8281101562001186578489015182556001820191506020850194506020810190506200115f565b86831015620011a65784890151620011a2601f89168262001096565b8355505b6001600288020188555050505b505050505050565b7f4e487b7100000000000000000000000000000000000000000000000000000000600052601160045260246000fd5b6000620011f782620008ca565b91507fffffffffffffffffffffffffffffffffffffffffffffffffffffffffffffffff82036200122c576200122b620011bb565b5b600182019050919050565b61313980620012476000396000f3fe608060405234801561001057600080fd5b50600436106100935760003560e01c8063af4e99de11610066578063af4e99de146100fa578063b91d53c61461011f578063d0e30db014610129578063e55ae4e814610133578063efa1c4821461016357610093565b806307784022146100985780636f9fb98a146100b45780637b352962146100d257806390506f20146100f0575b600080fd5b6100b260048036038101906100ad9190611ff2565b610186565b005b6100bc6101fd565b6040516100c99190612054565b60405180910390f35b6100da61020c565b6040516100e7919061208a565b60405180910390f35b6100f861021f565b005b610102610229565b6040516101169897969594939291906120a5565b60405180910390f35b610127610257565b005b610131610261565b005b61014d6004803603810190610148919061214f565b61026b565b60405161015a91906122b1565b60405180910390f35b61016b610283565b60405161017d969594939291906125a2565b60405180910390f35b600b60149054906101000a900460ff16156101d6576040517f08c379a00000000000000000000000000000000000000000000000000000000081526004016101cd9061268a565b60405180910390fd5b6101df816102a8565b6001600b60146101000a81548160ff02191690831515021790555050565b6000610207610b6d565b905090565b600b60149054906101000a900460ff1681565b610227610c0f565b565b60008060008060008060008061023d610ef0565b975097509750975097509750975097509091929394959697565b61025f610f55565b565b6102696110fe565b565b610273611d49565b61027c82611459565b9050919050565b6060806060806060806102946115c7565b955095509550955095509550909192939495565b600073ffffffffffffffffffffffffffffffffffffffff16600b60009054906101000a900473ffffffffffffffffffffffffffffffffffffffff1673ffffffffffffffffffffffffffffffffffffffff1603610339576040517f08c379a0000000000000000000000000000000000000000000000000000000008152600401610330906126f6565b60405180910390fd5b600160009054906101000a900473ffffffffffffffffffffffffffffffffffffffff1673ffffffffffffffffffffffffffffffffffffffff163373ffffffffffffffffffffffffffffffffffffffff16146103c9576040517f08c379a00000000000000000000000000000000000000000000000000000000081526004016103c090612788565b60405180910390fd5b600760029054906101000a900460ff1615610419576040517f08c379a0000000000000000000000000000000000000000000000000000000008152600401610410906127f4565b60405180910390fd5b600760009054906101000a900460ff16610468576040517f08c379a000000000000000000000000000000000000000000000000000000000815260040161045f90612860565b60405180910390fd5b600760019054906101000a900460ff16156104b8576040517f08c379a00000000000000000000000000000000000000000000000000000000081526004016104af906128cc565b60405180910390fd5b6003546005546104c8919061291b565b42111561050a576040517f08c379a00000000000000000000000000000000000000000000000000000000081526004016105019061299b565b60405180910390fd5b60008060009054906101000a900473ffffffffffffffffffffffffffffffffffffffff1673ffffffffffffffffffffffffffffffffffffffff166370a08231306040518263ffffffff1660e01b815260040161056691906129ca565b602060405180830381865afa158015610583573d6000803e3d6000fd5b505050506040513d601f19601f820116820180604052508101906105a791906129fa565b90506000825167ffffffffffffffff8111156105c6576105c5611dc3565b5b6040519080825280602002602001820160405280156105f45781602001602082028036833780820191505090505b5090506000835167ffffffffffffffff81111561061457610613611dc3565b5b6040519080825280602002602001820160405280156106425781602001602082028036833780820191505090505b50905060005b84518110156107165784818151811061066457610663612a27565b5b60200260200101516000015183828151811061068357610682612a27565b5b602002602001019073ffffffffffffffffffffffffffffffffffffffff16908173ffffffffffffffffffffffffffffffffffffffff16815250508481815181106106d0576106cf612a27565b5b6020026020010151602001518282815181106106ef576106ee612a27565b5b602002602001019060ff16908160ff1681525050808061070e90612a56565b915050610648565b50600080600b60009054906101000a900473ffffffffffffffffffffffffffffffffffffffff1673ffffffffffffffffffffffffffffffffffffffff16858585600260405160240161076b9493929190612ba1565b6040516020818303038152906040527fa7607228000000000000000000000000000000000000000000000000000000007bffffffffffffffffffffffffffffffffffffffffffffffffffffffff19166020820180517bffffffffffffffffffffffffffffffffffffffffffffffffffffffff83818316178352505050506040516107f59190612c3b565b600060405180830381855af49150503d8060008114610830576040519150601f19603f3d011682016040523d82523d6000602084013e610835565b606091505b50915091508161087a576040517f08c379a000000000000000000000000000000000000000000000000000000000815260040161087190612c9e565b60405180910390fd5b6000818060200190518101906108909190612d81565b905060005b87518110156109f35760008682815181106108b3576108b2612a27565b5b6020026020010151905060008383815181106108d2576108d1612a27565b5b6020026020010151905060008111156109de57610930828260008054906101000a900473ffffffffffffffffffffffffffffffffffffffff1673ffffffffffffffffffffffffffffffffffffffff16611a3e9092919063ffffffff16565b6000600960008473ffffffffffffffffffffffffffffffffffffffff1673ffffffffffffffffffffffffffffffffffffffff168152602001908152602001600020549050816008828154811061098957610988612a27565b5b9060005260206000209060050201600401819055506001600882815481106109b4576109b3612a27565b5b906000526020600020906005020160030160016101000a81548160ff021916908315150217905550505b505080806109eb90612a56565b915050610895565b5060008060009054906101000a900473ffffffffffffffffffffffffffffffffffffffff1673ffffffffffffffffffffffffffffffffffffffff166370a08231306040518263ffffffff1660e01b8152600401610a5091906129ca565b602060405180830381865afa158015610a6d573d6000803e3d6000fd5b505050506040513d601f19601f82011682018060405250810190610a9191906129fa565b90506000811115610b0a57610b09600160009054906101000a900473ffffffffffffffffffffffffffffffffffffffff168260008054906101000a900473ffffffffffffffffffffffffffffffffffffffff1673ffffffffffffffffffffffffffffffffffffffff16611a3e9092919063ffffffff16565b5b6001600760026101000a81548160ff021916908315150217905550426006819055507f821e8f282903f17bca18208015c4de756a7bbcd272fce239c6701cf1f9aed62042604051610b5b9190612054565b60405180910390a15050505050505050565b60008060009054906101000a900473ffffffffffffffffffffffffffffffffffffffff1673ffffffffffffffffffffffffffffffffffffffff166370a08231306040518263ffffffff1660e01b8152600401610bc991906129ca565b602060405180830381865afa158015610be6573d6000803e3d6000fd5b505050506040513d601f19601f82011682018060405250810190610c0a91906129fa565b905090565b600160009054906101000a900473ffffffffffffffffffffffffffffffffffffffff1673ffffffffffffffffffffffffffffffffffffffff163373ffffffffffffffffffffffffffffffffffffffff1614610c9f576040517f08c379a0000000000000000000000000000000000000000000000000000000008152600401610c9690612788565b60405180910390fd5b600760029054906101000a900460ff1615610cef576040517f08c379a0000000000000000000000000000000000000000000000000000000008152600401610ce6906127f4565b60405180910390fd5b600760019054906101000a900460ff1615610d3f576040517f08c379a0000000000000000000000000000000000000000000000000000000008152600401610d36906128cc565b60405180910390fd5b6001600760016101000a81548160ff02191690831515021790555060005b600880549050811015610ee55760088181548110610d7e57610d7d612a27565b5b906000526020600020906005020160030160009054906101000a900460ff168015610dd9575060088181548110610db857610db7612a27565b5b906000526020600020906005020160030160019054906101000a900460ff16155b15610ed257610e9360088281548110610df557610df4612a27565b5b906000526020600020906005020160010160009054906101000a900473ffffffffffffffffffffffffffffffffffffffff1660088381548110610e3b57610e3a612a27565b5b90600052602060002090600502016002015460008054906101000a900473ffffffffffffffffffffffffffffffffffffffff1673ffffffffffffffffffffffffffffffffffffffff16611a3e9092919063ffffffff16565b600160088281548110610ea957610ea8612a27565b5b906000526020600020906005020160030160016101000a81548160ff0219169083151502179055505b8080610edd90612a56565b915050610d5d565b50610eee610f55565b565b600080600080600080600080600254600354600454600554600654600760009054906101000a900460ff16600760019054906101000a900460ff16600760029054906101000a900460ff16975097509750975097509750975097509091929394959697565b600160009054906101000a900473ffffffffffffffffffffffffffffffffffffffff1673ffffffffffffffffffffffffffffffffffffffff163373ffffffffffffffffffffffffffffffffffffffff1614610fe5576040517f08c379a0000000000000000000000000000000000000000000000000000000008152600401610fdc90612788565b60405180910390fd5b60008060009054906101000a900473ffffffffffffffffffffffffffffffffffffffff1673ffffffffffffffffffffffffffffffffffffffff166370a08231306040518263ffffffff1660e01b815260040161104191906129ca565b602060405180830381865afa15801561105e573d6000803e3d6000fd5b505050506040513d601f19601f8201168201806040525081019061108291906129fa565b905060008111156110fb576110fa600160009054906101000a900473ffffffffffffffffffffffffffffffffffffffff168260008054906101000a900473ffffffffffffffffffffffffffffffffffffffff1673ffffffffffffffffffffffffffffffffffffffff16611a3e9092919063ffffffff16565b5b50565b600a60003373ffffffffffffffffffffffffffffffffffffffff1673ffffffffffffffffffffffffffffffffffffffff16815260200190815260200160002060009054906101000a900460ff1661118a576040517f08c379a000000000000000000000000000000000000000000000000000000000815260040161118190612e16565b60405180910390fd5b600760009054906101000a900460ff16156111da576040517f08c379a00000000000000000000000000000000000000000000000000000000081526004016111d190612e82565b60405180910390fd5b6002546004546111ea919061291b565b42111561122c576040517f08c379a000000000000000000000000000000000000000000000000000000000815260040161122390612eee565b60405180910390fd5b600760019054906101000a900460ff161561127c576040517f08c379a0000000000000000000000000000000000000000000000000000000008152600401611273906128cc565b60405180910390fd5b600760029054906101000a900460ff16156112cc576040517f08c379a00000000000000000000000000000000000000000000000000000000081526004016112c3906127f4565b60405180910390fd5b6000600960003373ffffffffffffffffffffffffffffffffffffffff1673ffffffffffffffffffffffffffffffffffffffff16815260200190815260200160002054905060006008828154811061132657611325612a27565b5b906000526020600020906005020190508060030160009054906101000a900460ff1615611388576040517f08c379a000000000000000000000000000000000000000000000000000000000815260040161137f90612f5a565b60405180910390fd5b6113d93330836002015460008054906101000a900473ffffffffffffffffffffffffffffffffffffffff1673ffffffffffffffffffffffffffffffffffffffff16611abd909392919063ffffffff16565b60018160030160006101000a81548160ff0219169083151502179055506113fe611b3f565b3373ffffffffffffffffffffffffffffffffffffffff167f19e6e409bcd6fbaad3b5921f8957e014f2c5aa12d3495c01f7590a6ed80561fe82600001836002015460405161144d929190613073565b60405180910390a25050565b611461611d49565b6008828154811061147557611474612a27565b5b90600052602060002090600502016040518060c001604052908160008201805461149e90612fa9565b80601f01602080910402602001604051908101604052809291908181526020018280546114ca90612fa9565b80156115175780601f106114ec57610100808354040283529160200191611517565b820191906000526020600020905b8154815290600101906020018083116114fa57829003601f168201915b505050505081526020016001820160009054906101000a900473ffffffffffffffffffffffffffffffffffffffff1673ffffffffffffffffffffffffffffffffffffffff1673ffffffffffffffffffffffffffffffffffffffff168152602001600282015481526020016003820160009054906101000a900460ff161515151581526020016003820160019054906101000a900460ff161515151581526020016004820154815250509050919050565b606080606080606080600060088054905090508067ffffffffffffffff8111156115f4576115f3611dc3565b5b60405190808252806020026020018201604052801561162757816020015b60608152602001906001900390816116125790505b5096508067ffffffffffffffff81111561164457611643611dc3565b5b6040519080825280602002602001820160405280156116725781602001602082028036833780820191505090505b5095508067ffffffffffffffff81111561168f5761168e611dc3565b5b6040519080825280602002602001820160405280156116bd5781602001602082028036833780820191505090505b5094508067ffffffffffffffff8111156116da576116d9611dc3565b5b6040519080825280602002602001820160405280156117085781602001602082028036833780820191505090505b5093508067ffffffffffffffff81111561172557611724611dc3565b5b6040519080825280602002602001820160405280156117535781602001602082028036833780820191505090505b5092508067ffffffffffffffff8111156117705761176f611dc3565b5b60405190808252806020026020018201604052801561179e5781602001602082028036833780820191505090505b50915060005b81811015611a34576000600882815481106117c2576117c1612a27565b5b90600052602060002090600502016040518060c00160405290816000820180546117eb90612fa9565b80601f016020809104026020016040519081016040528092919081815260200182805461181790612fa9565b80156118645780601f1061183957610100808354040283529160200191611864565b820191906000526020600020905b81548152906001019060200180831161184757829003601f168201915b505050505081526020016001820160009054906101000a900473ffffffffffffffffffffffffffffffffffffffff1673ffffffffffffffffffffffffffffffffffffffff1673ffffffffffffffffffffffffffffffffffffffff168152602001600282015481526020016003820160009054906101000a900460ff161515151581526020016003820160019054906101000a900460ff161515151581526020016004820154815250509050806000015189838151811061192757611926612a27565b5b6020026020010181905250806020015188838151811061194a57611949612a27565b5b602002602001019073ffffffffffffffffffffffffffffffffffffffff16908173ffffffffffffffffffffffffffffffffffffffff1681525050806040015187838151811061199c5761199b612a27565b5b60200260200101818152505080606001518683815181106119c0576119bf612a27565b5b60200260200101901515908115158152505080608001518583815181106119ea576119e9612a27565b5b6020026020010190151590811515815250508060a00151848381518110611a1457611a13612a27565b5b602002602001018181525050508080611a2c90612a56565b9150506117a4565b5050909192939495565b611ab8838473ffffffffffffffffffffffffffffffffffffffff1663a9059cbb8585604051602401611a719291906130a3565b604051602081830303815290604052915060e01b6020820180517bffffffffffffffffffffffffffffffffffffffffffffffffffffffff8381831617835250505050611ca7565b505050565b611b39848573ffffffffffffffffffffffffffffffffffffffff166323b872dd868686604051602401611af2939291906130cc565b604051602081830303815290604052915060e01b6020820180517bffffffffffffffffffffffffffffffffffffffffffffffffffffffff8381831617835250505050611ca7565b50505050565b600073ffffffffffffffffffffffffffffffffffffffff16600b60009054906101000a900473ffffffffffffffffffffffffffffffffffffffff1673ffffffffffffffffffffffffffffffffffffffff1603611bd0576040517f08c379a0000000000000000000000000000000000000000000000000000000008152600401611bc7906126f6565b60405180910390fd5b600060019050600760009054906101000a900460ff16611ca45760005b600880549050811015611c4d5760088181548110611c0e57611c0d612a27565b5b906000526020600020906005020160030160009054906101000a900460ff16611c3a5760009150611c4d565b8080611c4590612a56565b915050611bed565b508015611ca3576001600760006101000a81548160ff021916908315150217905550426005819055507f780fcd6f670bec2e3c1a567dfc85156e0a2a05927c566f714abbddb8ba7f1e5660405160405180910390a15b5b50565b600080602060008451602086016000885af180611cca576040513d6000823e3d81fd5b3d925060005191505060008214611ce5576001811415611d01565b60008473ffffffffffffffffffffffffffffffffffffffff163b145b15611d4357836040517f5274afe7000000000000000000000000000000000000000000000000000000008152600401611d3a91906129ca565b60405180910390fd5b50505050565b6040518060c0016040528060608152602001600073ffffffffffffffffffffffffffffffffffffffff16815260200160008152602001600015158152602001600015158152602001600081525090565b6000604051905090565b600080fd5b600080fd5b600080fd5b6000601f19601f8301169050919050565b7f4e487b7100000000000000000000000000000000000000000000000000000000600052604160045260246000fd5b611dfb82611db2565b810181811067ffffffffffffffff82111715611e1a57611e19611dc3565b5b80604052505050565b6000611e2d611d99565b9050611e398282611df2565b919050565b600067ffffffffffffffff821115611e5957611e58611dc3565b5b602082029050602081019050919050565b600080fd5b600080fd5b600073ffffffffffffffffffffffffffffffffffffffff82169050919050565b6000611e9f82611e74565b9050919050565b611eaf81611e94565b8114611eba57600080fd5b50565b600081359050611ecc81611ea6565b92915050565b600060ff82169050919050565b611ee881611ed2565b8114611ef357600080fd5b50565b600081359050611f0581611edf565b92915050565b600060408284031215611f2157611f20611e6f565b5b611f2b6040611e23565b90506000611f3b84828501611ebd565b6000830152506020611f4f84828501611ef6565b60208301525092915050565b6000611f6e611f6984611e3e565b611e23565b90508083825260208201905060408402830185811115611f9157611f90611e6a565b5b835b81811015611fba5780611fa68882611f0b565b845260208401935050604081019050611f93565b5050509392505050565b600082601f830112611fd957611fd8611dad565b5b8135611fe9848260208601611f5b565b91505092915050565b60006020828403121561200857612007611da3565b5b600082013567ffffffffffffffff81111561202657612025611da8565b5b61203284828501611fc4565b91505092915050565b6000819050919050565b61204e8161203b565b82525050565b60006020820190506120696000830184612045565b92915050565b60008115159050919050565b6120848161206f565b82525050565b600060208201905061209f600083018461207b565b92915050565b6000610100820190506120bb600083018b612045565b6120c8602083018a612045565b6120d56040830189612045565b6120e26060830188612045565b6120ef6080830187612045565b6120fc60a083018661207b565b61210960c083018561207b565b61211660e083018461207b565b9998505050505050505050565b61212c8161203b565b811461213757600080fd5b50565b60008135905061214981612123565b92915050565b60006020828403121561216557612164611da3565b5b60006121738482850161213a565b91505092915050565b600081519050919050565b600082825260208201905092915050565b60005b838110156121b657808201518184015260208101905061219b565b60008484015250505050565b60006121cd8261217c565b6121d78185612187565b93506121e7818560208601612198565b6121f081611db2565b840191505092915050565b61220481611e94565b82525050565b6122138161203b565b82525050565b6122228161206f565b82525050565b600060c083016000830151848203600086015261224582826121c2565b915050602083015161225a60208601826121fb565b50604083015161226d604086018261220a565b5060608301516122806060860182612219565b5060808301516122936080860182612219565b5060a08301516122a660a086018261220a565b508091505092915050565b600060208201905081810360008301526122cb8184612228565b905092915050565b600081519050919050565b600082825260208201905092915050565b6000819050602082019050919050565b600061230b83836121c2565b905092915050565b6000602082019050919050565b600061232b826122d3565b61233581856122de565b935083602082028501612347856122ef565b8060005b85811015612383578484038952815161236485826122ff565b945061236f83612313565b925060208a0199505060018101905061234b565b50829750879550505050505092915050565b600081519050919050565b600082825260208201905092915050565b6000819050602082019050919050565b60006123cd83836121fb565b60208301905092915050565b6000602082019050919050565b60006123f182612395565b6123fb81856123a0565b9350612406836123b1565b8060005b8381101561243757815161241e88826123c1565b9750612429836123d9565b92505060018101905061240a565b5085935050505092915050565b600081519050919050565b600082825260208201905092915050565b6000819050602082019050919050565b600061247c838361220a565b60208301905092915050565b6000602082019050919050565b60006124a082612444565b6124aa818561244f565b93506124b583612460565b8060005b838110156124e65781516124cd8882612470565b97506124d883612488565b9250506001810190506124b9565b5085935050505092915050565b600081519050919050565b600082825260208201905092915050565b6000819050602082019050919050565b600061252b8383612219565b60208301905092915050565b6000602082019050919050565b600061254f826124f3565b61255981856124fe565b93506125648361250f565b8060005b8381101561259557815161257c888261251f565b975061258783612537565b925050600181019050612568565b5085935050505092915050565b600060c08201905081810360008301526125bc8189612320565b905081810360208301526125d081886123e6565b905081810360408301526125e48187612495565b905081810360608301526125f88186612544565b9050818103608083015261260c8185612544565b905081810360a08301526126208184612495565b9050979650505050505050565b600082825260208201905092915050565b7f47616d6520616c72656164792066696e69736865640000000000000000000000600082015250565b600061267460158361262d565b915061267f8261263e565b602082019050919050565b600060208201905081810360008301526126a381612667565b9050919050565b7f496e76616c6964206c6f67696320636f6e747261637420616464726573730000600082015250565b60006126e0601e8361262d565b91506126eb826126aa565b602082019050919050565b6000602082019050818103600083015261270f816126d3565b9050919050565b7f4f6e6c7920746865206f776e65722063616e2063616c6c20746869732066756e60008201527f6374696f6e000000000000000000000000000000000000000000000000000000602082015250565b600061277260258361262d565b915061277d82612716565b604082019050919050565b600060208201905081810360008301526127a181612765565b9050919050565b7f47616d6520697320616c72656164792066696e69736865640000000000000000600082015250565b60006127de60188361262d565b91506127e9826127a8565b602082019050919050565b6000602082019050818103600083015261280d816127d1565b9050919050565b7f42657474696e67206e6f7420636f6d706c657465642079657400000000000000600082015250565b600061284a60198361262d565b915061285582612814565b602082019050919050565b600060208201905081810360008301526128798161283d565b9050919050565b7f47616d652069732061626f727465640000000000000000000000000000000000600082015250565b60006128b6600f8361262d565b91506128c182612880565b602082019050919050565b600060208201905081810360008301526128e5816128a9565b9050919050565b7f4e487b7100000000000000000000000000000000000000000000000000000000600052601160045260246000fd5b60006129268261203b565b91506129318361203b565b9250828201905080821115612949576129486128ec565b5b92915050565b7f47616d652074696d652065786365656465640000000000000000000000000000600082015250565b600061298560128361262d565b91506129908261294f565b602082019050919050565b600060208201905081810360008301526129b481612978565b9050919050565b6129c481611e94565b82525050565b60006020820190506129df60008301846129bb565b92915050565b6000815190506129f481612123565b92915050565b600060208284031215612a1057612a0f611da3565b5b6000612a1e848285016129e5565b91505092915050565b7f4e487b7100000000000000000000000000000000000000000000000000000000600052603260045260246000fd5b6000612a618261203b565b91507fffffffffffffffffffffffffffffffffffffffffffffffffffffffffffffffff8203612a9357612a926128ec565b5b600182019050919050565b600081519050919050565b600082825260208201905092915050565b6000819050602082019050919050565b612ad381611ed2565b82525050565b6000612ae58383612aca565b60208301905092915050565b6000602082019050919050565b6000612b0982612a9e565b612b138185612aa9565b9350612b1e83612aba565b8060005b83811015612b4f578151612b368882612ad9565b9750612b4183612af1565b925050600181019050612b22565b5085935050505092915050565b6000819050919050565b6000819050919050565b6000612b8b612b86612b8184612b5c565b612b66565b611ed2565b9050919050565b612b9b81612b70565b82525050565b6000608082019050612bb66000830187612045565b8181036020830152612bc881866123e6565b90508181036040830152612bdc8185612afe565b9050612beb6060830184612b92565b95945050505050565b600081519050919050565b600081905092915050565b6000612c1582612bf4565b612c1f8185612bff565b9350612c2f818560208601612198565b80840191505092915050565b6000612c478284612c0a565b915081905092915050565b7f44656c656761746563616c6c206661696c656400000000000000000000000000600082015250565b6000612c8860138361262d565b9150612c9382612c52565b602082019050919050565b60006020820190508181036000830152612cb781612c7b565b9050919050565b600067ffffffffffffffff821115612cd957612cd8611dc3565b5b602082029050602081019050919050565b6000612cfd612cf884612cbe565b611e23565b90508083825260208201905060208402830185811115612d2057612d1f611e6a565b5b835b81811015612d495780612d3588826129e5565b845260208401935050602081019050612d22565b5050509392505050565b600082601f830112612d6857612d67611dad565b5b8151612d78848260208601612cea565b91505092915050565b600060208284031215612d9757612d96611da3565b5b600082015167ffffffffffffffff811115612db557612db4611da8565b5b612dc184828501612d53565b91505092915050565b7f506c6179657220646f6573206e6f742065786973740000000000000000000000600082015250565b6000612e0060158361262d565b9150612e0b82612dca565b602082019050919050565b60006020820190508181036000830152612e2f81612df3565b9050919050565b7f42657474696e6720616c726561647920636f6d706c6574656400000000000000600082015250565b6000612e6c60198361262d565b9150612e7782612e36565b602082019050919050565b60006020820190508181036000830152612e9b81612e5f565b9050919050565b7f42657474696e672074696d65206973206f766572000000000000000000000000600082015250565b6000612ed860148361262d565b9150612ee382612ea2565b602082019050919050565b60006020820190508181036000830152612f0781612ecb565b9050919050565b7f416c726561647920706169640000000000000000000000000000000000000000600082015250565b6000612f44600c8361262d565b9150612f4f82612f0e565b602082019050919050565b60006020820190508181036000830152612f7381612f37565b9050919050565b7f4e487b7100000000000000000000000000000000000000000000000000000000600052602260045260246000fd5b60006002820490506001821680612fc157607f821691505b602082108103612fd457612fd3612f7a565b5b50919050565b60008190508160005260206000209050919050565b60008154612ffc81612fa9565b613006818661262d565b9450600182166000811461302157600181146130375761306a565b60ff19831686528115156020028601935061306a565b61304085612fda565b60005b8381101561306257815481890152600182019150602081019050613043565b808801955050505b50505092915050565b6000604082019050818103600083015261308d8185612fef565b905061309c6020830184612045565b9392505050565b60006040820190506130b860008301856129bb565b6130c56020830184612045565b9392505050565b60006060820190506130e160008301866129bb565b6130ee60208301856129bb565b6130fb6040830184612045565b94935050505056fea264697066735822122032cde29d230d646a9f3508c5c6d38109e9b407dfbfb52d0fa25cc91215d136d464736f6c63430008140033",
  "linkReferences": {},
  "deployedLinkReferences": {}
}